{"abi":[{"type":"constructor","inputs":[{"name":"_burnUtility","type":"address","internalType":"address"},{"name":"_districtAccess","type":"address","internalType":"address"},{"name":"_landUpgrade","type":"address","internalType":"address"},{"name":"_creatorTools","type":"address","internalType":"address"},{"name":"_prestige","type":"address","internalType":"address"},{"name":"_miniAppAccess","type":"address","internalType":"address"}],"stateMutability":"nonpayable"},{"type":"function","name":"ADJUSTMENT_COOLDOWN","inputs":[],"outputs":[{"name":"","type":"uint256","internalType":"uint256"}],"stateMutability":"view"},{"type":"function","name":"AI_OPERATOR_ROLE","inputs":[],"outputs":[{"name":"","type":"bytes32","internalType":"bytes32"}],"stateMutability":"view"},{"type":"function","name":"DEFAULT_ADMIN_ROLE","inputs":[],"outputs":[{"name":"","type":"bytes32","internalType":"bytes32"}],"stateMutability":"view"},{"type":"function","name":"MAX_PRICE_CHANGE_PERCENT","inputs":[],"outputs":[{"name":"","type":"uint256","internalType":"uint256"}],"stateMutability":"view"},{"type":"function","name":"adjustCreatorTierPrices","inputs":[{"name":"tiers","type":"uint8[]","internalType":"uint8[]"},{"name":"adjustmentPercents","type":"int8[]","internalType":"int8[]"}],"outputs":[],"stateMutability":"nonpayable"},{"type":"function","name":"adjustDistrictPrices","inputs":[{"name":"districtIds","type":"uint8[]","internalType":"uint8[]"},{"name":"adjustmentPercents","type":"int8[]","internalType":"int8[]"}],"outputs":[],"stateMutability":"nonpayable"},{"type":"function","name":"adjustLandUpgradePrices","inputs":[{"name":"levels","type":"uint8[]","internalType":"uint8[]"},{"name":"adjustmentPercents","type":"int8[]","internalType":"int8[]"}],"outputs":[],"stateMutability":"nonpayable"},{"type":"function","name":"adjustPrestigePrices","inputs":[{"name":"ranks","type":"uint8[]","internalType":"uint8[]"},{"name":"adjustmentPercents","type":"int8[]","internalType":"int8[]"}],"outputs":[],"stateMutability":"nonpayable"},{"type":"function","name":"adjustmentCount","inputs":[],"outputs":[{"name":"","type":"uint256","internalType":"uint256"}],"stateMutability":"view"},{"type":"function","name":"bounds","inputs":[],"outputs":[{"name":"minDistrictPrice","type":"uint256","internalType":"uint256"},{"name":"maxDistrictPrice","type":"uint256","internalType":"uint256"},{"name":"minLandUpgradePrice","type":"uint256","internalType":"uint256"},{"name":"maxLandUpgradePrice","type":"uint256","internalType":"uint256"},{"name":"minCreatorTierPrice","type":"uint256","internalType":"uint256"},{"name":"maxCreatorTierPrice","type":"uint256","internalType":"uint256"},{"name":"minPrestigePrice","type":"uint256","internalType":"uint256"},{"name":"maxPrestigePrice","type":"uint256","internalType":"uint256"},{"name":"minMiniAppPrice","type":"uint256","internalType":"uint256"},{"name":"maxMiniAppPrice","type":"uint256","internalType":"uint256"}],"stateMutability":"view"},{"type":"function","name":"burnUtility","inputs":[],"outputs":[{"name":"","type":"address","internalType":"contract VoidBurnUtility"}],"stateMutability":"view"},{"type":"function","name":"creatorTools","inputs":[],"outputs":[{"name":"","type":"address","internalType":"contract CreatorToolsBurn"}],"stateMutability":"view"},{"type":"function","name":"currentMetrics","inputs":[],"outputs":[{"name":"totalDistrictUnlocks","type":"uint256","internalType":"uint256"},{"name":"totalLandUpgrades","type":"uint256","internalType":"uint256"},{"name":"totalCreatorTiers","type":"uint256","internalType":"uint256"},{"name":"totalPrestigeRanks","type":"uint256","internalType":"uint256"},{"name":"totalMiniAppUnlocks","type":"uint256","internalType":"uint256"},{"name":"activeUsers30d","type":"uint256","internalType":"uint256"},{"name":"newUsers7d","type":"uint256","internalType":"uint256"}],"stateMutability":"view"},{"type":"function","name":"districtAccess","inputs":[],"outputs":[{"name":"","type":"address","internalType":"contract DistrictAccessBurn"}],"stateMutability":"view"},{"type":"function","name":"emergencyOverridePrices","inputs":[{"name":"category","type":"string","internalType":"string"},{"name":"ids","type":"uint8[]","internalType":"uint8[]"},{"name":"newPrices","type":"uint256[]","internalType":"uint256[]"}],"outputs":[],"stateMutability":"nonpayable"},{"type":"function","name":"getRoleAdmin","inputs":[{"name":"role","type":"bytes32","internalType":"bytes32"}],"outputs":[{"name":"","type":"bytes32","internalType":"bytes32"}],"stateMutability":"view"},{"type":"function","name":"grantRole","inputs":[{"name":"role","type":"bytes32","internalType":"bytes32"},{"name":"account","type":"address","internalType":"address"}],"outputs":[],"stateMutability":"nonpayable"},{"type":"function","name":"hasRole","inputs":[{"name":"role","type":"bytes32","internalType":"bytes32"},{"name":"account","type":"address","internalType":"address"}],"outputs":[{"name":"","type":"bool","internalType":"bool"}],"stateMutability":"view"},{"type":"function","name":"landUpgrade","inputs":[],"outputs":[{"name":"","type":"address","internalType":"contract LandUpgradeBurn"}],"stateMutability":"view"},{"type":"function","name":"lastAdjustmentTimestamp","inputs":[],"outputs":[{"name":"","type":"uint256","internalType":"uint256"}],"stateMutability":"view"},{"type":"function","name":"miniAppAccess","inputs":[],"outputs":[{"name":"","type":"address","internalType":"contract MiniAppBurnAccess"}],"stateMutability":"view"},{"type":"function","name":"prestige","inputs":[],"outputs":[{"name":"","type":"address","internalType":"contract PrestigeBurn"}],"stateMutability":"view"},{"type":"function","name":"renounceRole","inputs":[{"name":"role","type":"bytes32","internalType":"bytes32"},{"name":"account","type":"address","internalType":"address"}],"outputs":[],"stateMutability":"nonpayable"},{"type":"function","name":"revokeRole","inputs":[{"name":"role","type":"bytes32","internalType":"bytes32"},{"name":"account","type":"address","internalType":"address"}],"outputs":[],"stateMutability":"nonpayable"},{"type":"function","name":"supportsInterface","inputs":[{"name":"interfaceId","type":"bytes4","internalType":"bytes4"}],"outputs":[{"name":"","type":"bool","internalType":"bool"}],"stateMutability":"view"},{"type":"function","name":"updateMetrics","inputs":[{"name":"_totalDistrictUnlocks","type":"uint256","internalType":"uint256"},{"name":"_totalLandUpgrades","type":"uint256","internalType":"uint256"},{"name":"_totalCreatorTiers","type":"uint256","internalType":"uint256"},{"name":"_totalPrestigeRanks","type":"uint256","internalType":"uint256"},{"name":"_totalMiniAppUnlocks","type":"uint256","internalType":"uint256"},{"name":"_activeUsers30d","type":"uint256","internalType":"uint256"},{"name":"_newUsers7d","type":"uint256","internalType":"uint256"}],"outputs":[],"stateMutability":"nonpayable"},{"type":"event","name":"EmergencyPriceOverride","inputs":[{"name":"category","type":"string","indexed":false,"internalType":"string"},{"name":"newPrices","type":"uint256[]","indexed":false,"internalType":"uint256[]"},{"name":"admin","type":"address","indexed":true,"internalType":"address"},{"name":"timestamp","type":"uint256","indexed":false,"internalType":"uint256"}],"anonymous":false},{"type":"event","name":"MetricsUpdated","inputs":[{"name":"metrics","type":"tuple","indexed":false,"internalType":"struct AIUtilityGovernor.WorldMetrics","components":[{"name":"totalDistrictUnlocks","type":"uint256","internalType":"uint256"},{"name":"totalLandUpgrades","type":"uint256","internalType":"uint256"},{"name":"totalCreatorTiers","type":"uint256","internalType":"uint256"},{"name":"totalPrestigeRanks","type":"uint256","internalType":"uint256"},{"name":"totalMiniAppUnlocks","type":"uint256","internalType":"uint256"},{"name":"activeUsers30d","type":"uint256","internalType":"uint256"},{"name":"newUsers7d","type":"uint256","internalType":"uint256"}]},{"name":"timestamp","type":"uint256","indexed":false,"internalType":"uint256"}],"anonymous":false},{"type":"event","name":"PricesAdjusted","inputs":[{"name":"category","type":"string","indexed":false,"internalType":"string"},{"name":"adjustmentPercent","type":"uint256","indexed":false,"internalType":"uint256"},{"name":"increased","type":"bool","indexed":false,"internalType":"bool"},{"name":"timestamp","type":"uint256","indexed":false,"internalType":"uint256"}],"anonymous":false},{"type":"event","name":"RoleAdminChanged","inputs":[{"name":"role","type":"bytes32","indexed":true,"internalType":"bytes32"},{"name":"previousAdminRole","type":"bytes32","indexed":true,"internalType":"bytes32"},{"name":"newAdminRole","type":"bytes32","indexed":true,"internalType":"bytes32"}],"anonymous":false},{"type":"event","name":"RoleGranted","inputs":[{"name":"role","type":"bytes32","indexed":true,"internalType":"bytes32"},{"name":"account","type":"address","indexed":true,"internalType":"address"},{"name":"sender","type":"address","indexed":true,"internalType":"address"}],"anonymous":false},{"type":"event","name":"RoleRevoked","inputs":[{"name":"role","type":"bytes32","indexed":true,"internalType":"bytes32"},{"name":"account","type":"address","indexed":true,"internalType":"address"},{"name":"sender","type":"address","indexed":true,"internalType":"address"}],"anonymous":false}],"bytecode":{"object":"0x610140346200031a576001600160401b03601f620023fe38819003918201601f1916840191908383118584101762000296578160c092869260409586528339810103126200031a5762000052836200031e565b916020620000628186016200031e565b6200006f8487016200031e565b906200007e606088016200031e565b6200009a60a06200009260808b016200031e565b99016200031e565b9660018060a01b0393848094818094166080521660a0521660c0521660e0528061010096168652610120941684525f80525f8152825f20335f52815260ff835f20541615620002e3575b7f48868f588032c2767aa096056904be47c4801b46f0d2481a28ff6b4d3dfae5f3805f525f8252835f20335f52825260ff845f20541615620002aa575b5042600155825161014081019283118184101762000296578492845269021e19e0c9bab24000008082526a084595161401484a000000809383015269010f0cf064dd592000009081868401526a14adf4b7320334b90000008060608501528160808501526a108b2a2c28029094000000928360a0860152683635c9adc5dea00000958660c08701526b019d971e4fe8401e74000000958660e0820152878c8201526a0422ca8b0a00a425000000988991015283600a55600b55600c55600d55600e55600f558160105560115560125560135551906120aa9283620003348439608051836110f6015260a05183818161019101528181610292015281816102e50152818161040b0152610b49015260c0518381816101f40152818161083001528181610883015281816109980152610c7c015260e051838181610d6701528181611364015261147c015251828181610566015281816105b9015281816106ca01528181610dfe015261113b015251816117350152f35b634e487b7160e01b5f52604160045260245ffd5b805f525f8252835f20335f528252835f20600160ff19825416179055339033905f80516020620023de8339815191525f80a45f62000121565b5f80525f8152825f20335f528152825f20600160ff1982541617905533335f5f80516020620023de8339815191528180a4620000e4565b5f80fd5b51906001600160a01b03821682036200031a5756fe6080806040526004361015610012575f80fd5b5f9060e05f35811c91826301ffc9a7146117ad575081630338c47714611790578163248a9ca3146117645781632e49ca10146117205781632f2ff15d1461168957816331011b491461141857816336568abe146113935781634e3bbaa31461134e5781635843a5ad146112dd57816375beb7b1146112c157816377a35c38146111c45781638c470c50146111a657816391d148541461116a5781639c7081df146111255781639f5002bf146110e0578163a07faf5e1461109057508063a217fddf14611074578063a600b6bb14610a5d578063baee5323146107c1578063d547741f1461078f578063db453710146104f7578063dc1b151f14610223578063ecdbf153146101de578063f19ba39a146101c0578063f361302e1461017b5763fb3d2e051461013e575f80fd5b3461017857806003193601126101785760206040517f48868f588032c2767aa096056904be47c4801b46f0d2481a28ff6b4d3dfae5f38152f35b80fd5b50346101785780600319360112610178576040517f00000000000000000000000000000000000000000000000000000000000000006001600160a01b03168152602090f35b5034610178578060031936011261017857602060405162093a808152f35b50346101785780600319360112610178576040517f00000000000000000000000000000000000000000000000000000000000000006001600160a01b03168152602090f35b50346101785761023236611857565b9193929061023e611bbe565b60015462093a8081018091116104e35761025d909391934210156118a2565b6102688186146118e5565b600954600a60085404109261027c86611993565b938591600a54925b88811061039757878088888c7f00000000000000000000000000000000000000000000000000000000000000006001600160a01b03163b156103925783916102e06040519485938493635d1e291360e11b855260048501611acf565b0381837f00000000000000000000000000000000000000000000000000000000000000006001600160a01b03165af1801561038757610373575b504260015561032a600254611b1c565b6002555f8051602061205583398151915260c0604051608081526008608082015267111254d5149250d560c21b60a0820152600a6020820152836040820152426060820152a180f35b61037c90611929565b61017857808261031a565b6040513d84823e3d90fd5b505050fd5b6103aa6103a5828b896119c5565b6119e9565b906103b68187856119c5565b3591828a0b928381036104df578a869194600919820b811215806104d4575b6103de906119f7565b826104ca575b50506104c2575b60405163a25550f160e01b815260ff9190911660048201526020816024817f00000000000000000000000000000000000000000000000000000000000000006001600160a01b03165afa9081156104b7578a91610480575b5060019261045091611e78565b8581101580610474575b61046390611a38565b61046d828a611a7a565b5201610284565b50600b5481111561045a565b90506020813d6020116104af575b8161049b60209383611959565b810103126104ab57516001610443565b5f80fd5b3d915061048e565b6040513d8c823e3d90fd5b8992506103eb565b1390508a5f6103e4565b50600a8113156103d5565b8a80fd5b634e487b7160e01b85526011600452602485fd5b50346101785761050636611857565b91939290610512611bbe565b60015462093a8081018091116104e357610531909391934210156118a2565b61053c8186146118e5565b600954600a60085404109261055086611993565b938591601054925b88811061065b57878088888c7f00000000000000000000000000000000000000000000000000000000000000006001600160a01b03163b156103925783916105b46040519485938493635053705b60e11b855260048501611acf565b0381837f00000000000000000000000000000000000000000000000000000000000000006001600160a01b03165af1801561038757610647575b50426001556105fe600254611b1c565b6002555f8051602061205583398151915260c0604051608081526008608082015267505245535449474560c01b60a0820152600a6020820152836040820152426060820152a180f35b61065090611929565b6101785780826105ee565b6106696103a5828b896119c5565b906106758187856119c5565b3591828a0b928381036104df578a869194600919820b81121580610784575b61069d906119f7565b8261077a575b5050610772575b6040516322b1aa7f60e21b815260ff9190911660048201526020816024817f00000000000000000000000000000000000000000000000000000000000000006001600160a01b03165afa9081156104b7578a9161073f575b5060019261070f91611e78565b8581101580610733575b61072290611a38565b61072c828a611a7a565b5201610558565b50601154811115610719565b90506020813d60201161076a575b8161075a60209383611959565b810103126104ab57516001610702565b3d915061074d565b8992506106aa565b1390508a5f6106a3565b50600a811315610694565b5034610178576107be6107a136611800565b90808452836020526107b96001604086200154611d63565b611ecc565b80f35b5034610178576107d036611857565b919392906107dc611bbe565b60015462093a8081018091116104e3576107fb909391934210156118a2565b6108068186146118e5565b600954600a60085404109261081a86611993565b938591600c54925b88811061092957878088888c7f00000000000000000000000000000000000000000000000000000000000000006001600160a01b03163b1561039257839161087e6040519485938493635053705b60e11b855260048501611acf565b0381837f00000000000000000000000000000000000000000000000000000000000000006001600160a01b03165af1801561038757610915575b50426001556108c8600254611b1c565b6002555f8051602061205583398151915260c060405160808152600c60808201526b4c414e445f5550475241444560a01b60a0820152600a6020820152836040820152426060820152a180f35b61091e90611929565b6101785780826108b8565b6109376103a5828b896119c5565b906109438187856119c5565b3591828a0b928381036104df578a869194600919820b81121580610a52575b61096b906119f7565b82610a48575b5050610a40575b604051632592b05760e11b815260ff9190911660048201526020816024817f00000000000000000000000000000000000000000000000000000000000000006001600160a01b03165afa9081156104b7578a91610a0d575b506001926109dd91611e78565b8581101580610a01575b6109f090611a38565b6109fa828a611a7a565b5201610822565b50600d548111156109e7565b90506020813d602011610a38575b81610a2860209383611959565b810103126104ab575160016109d0565b3d9150610a1b565b899250610978565b1390508a5f610971565b50600a811315610962565b50346101785760603660031901126101785760043567ffffffffffffffff808211611070573660238301121561107057816004013590808211610c3e57602490818401938284369201011161106c578135818111610c3a57610ac3903690600401611826565b92909160443590811161106857610ade903690600401611826565b9290935f80526020925f845260405f20335f52845260ff60405f20541615610e8c5790889291610b0f8683146118e5565b7fd87ad01bad3cd8c4bba4363efe2ff47e8ade46a76c8f29577512034bd76e3646610b3b368a8c611b2a565b80519087012003610c4257507f00000000000000000000000000000000000000000000000000000000000000006001600160a01b031691823b15610c3e5785928492838993610ba060405197889687958694635d1e291360e11b865260048601611b94565b03925af1801561038757610c20575b5050906080610c1093927fd9f350167a8154ca4818e0519daed482a05f5becb6b9e0b85b872daa1319bfa8955b806040519860608a528160608b0152848a01378883828a010152601f80199101168701908288830301908801520191611b70565b914260408201528033930390a280f35b610c2d9094939294611929565b610c3a579091855f610baf565b8580fd5b8380fd5b7f9d163d26ab728102e218b48fdd3adfc54df6646e6ef5a2f0e513dc9f5b3a948c610c6e368a8c611b2a565b80519087012003610d2d57507f00000000000000000000000000000000000000000000000000000000000000006001600160a01b031691823b15610c3e5785928492838993610cd360405197889687958694635053705b60e11b865260048601611b94565b03925af1801561038757610d13575b5050906080610c1093927fd9f350167a8154ca4818e0519daed482a05f5becb6b9e0b85b872daa1319bfa895610bdc565b610d209094939294611929565b610c3a579091855f610ce2565b7f68536e976d5077e708f68d22370627fc571d159735181950f666b12f6b32735c610d59368a8c611b2a565b80519087012003610dbe57507f00000000000000000000000000000000000000000000000000000000000000006001600160a01b031691823b15610c3e5785928492838993610cd360405197889687958694635053705b60e11b865260048601611b94565b909192507f57b0b7b5f71b850d7c5aaebdd4a15ca6b5918443518f255424fca4b8041f66d7610dee36898b611b2a565b80519086012003610e56575087917f00000000000000000000000000000000000000000000000000000000000000006001600160a01b03169190823b15610c3e5785928492838993610cd360405197889687958694635053705b60e11b865260048601611b94565b8360106064926040519262461bcd60e51b845260048401528201526f496e76616c69642063617465676f727960801b6044820152fd5b83610e9633611f6f565b905f91604051610ea58161193d565b60428152828101936060368637815115611055576030855381516001906001101561104257607860218401536041905b808211610fd9575050610f975760449394610f646048610f8993604051988991610f558984019876020b1b1b2b9b9a1b7b73a3937b61d1030b1b1b7bab73a1604d1b8a52610f2c815180928d603789019101611f3d565b8401917001034b99036b4b9b9b4b733903937b6329607d1b603784015251809386840190611f3d565b01036028810189520187611959565b60405195869462461bcd60e51b86526004860152519283809286015285850190611f3d565b601f01601f19168101030190fd5b606485846040519162461bcd60e51b83528160048401528201527f537472696e67733a20686578206c656e67746820696e73756666696369656e746044820152fd5b9091600f8116601081101561102f576f181899199a1a9b1b9c1cb0b131b232b360811b901a6110088486611f5e565b5360041c91801561101c575f190190610ed5565b87634e487b7160e01b5f5260116004525ffd5b88634e487b7160e01b5f5260326004525ffd5b86634e487b7160e01b5f5260326004525ffd5b85634e487b7160e01b5f5260326004525ffd5b8680fd5b8480fd5b8280fd5b5034610178578060031936011261017857602090604051908152f35b823461017857806003193601126101785750600354600454600554600654600754906008549260095494604051968752602087015260408601526060850152608084015260a083015260c0820152f35b82346101785780600319360112610178576040517f00000000000000000000000000000000000000000000000000000000000000006001600160a01b03168152602090f35b82346101785780600319360112610178576040517f00000000000000000000000000000000000000000000000000000000000000006001600160a01b03168152602090f35b823461017857604061117b36611800565b9290815280602052209060018060a01b03165f52602052602060ff60405f2054166040519015158152f35b82346101785780600319360112610178576020600254604051908152f35b9050346112bd57806003193601126112bd5760443590602435906004359060c43560a4356084356064356111f6611bbe565b604051978589019789891067ffffffffffffffff8a11176112a9578560c07f4b0b2a13c93cf8f8385292823a206971a599da380b19eb3a56b56e8a3892c5e19b6101009b6040528a81528360208201528460408201528560608201528660808201528760a0820152015287600355806004558160055582600655836007558460085585600955604051978852602088015260408701526060860152608085015260a084015260c08301524290820152a180f35b634e487b7160e01b5f52604160045260245ffd5b5080fd5b82346101785780600319360112610178576020604051600a8152f35b9050346112bd57816003193601126112bd5761014090600a5490600b5490600c5490600d5490600e54600f54601054916011549460125496601354986040519a8b5260208b015260408a01526060890152608088015260a087015260c0860152840152610100830152610120820152f35b82346101785780600319360112610178576040517f00000000000000000000000000000000000000000000000000000000000000006001600160a01b03168152602090f35b8234610178576113a236611800565b336001600160a01b038216036113bb576107be91611ecc565b60405162461bcd60e51b815260206004820152602f60248201527f416363657373436f6e74726f6c3a2063616e206f6e6c792072656e6f756e636560448201526e103937b632b9903337b91039b2b63360891b6064820152608490fd5b82346104ab5761142736611857565b611432939293611bbe565b6001805462093a80810180911161167557611452909392934210156118a2565b61145d8386146118e5565b60095492600a93600a60085404109261147587611993565b600e5490957f00000000000000000000000000000000000000000000000000000000000000006001600160a01b031695919290915f5b8a811061156c5750505050505050803b156104ab576114e4935f809460405196879586948593635053705b60e11b855260048501611acf565b03925af1801561156157611550575b5042600155611503600254611b1c565b6002555f8051602061205583398151915260c060405160808152600c60808201526b21a922a0aa27a92faa24a2a960a11b60a0820152600a6020820152836040820152426060820152a180f35b61155a9150611929565b5f816114f3565b6040513d5f823e3d90fd5b61157a6103a5828d8d6119c5565b906115868188866119c5565b35805f0b908181036104ab579084906009198112158061166b575b6115aa906119f7565b81611661575b5061165a575b604051637e08bf0360e01b815260ff93909316600484015260209283816024818e5afa908115611561578a945f92611625575b5050906115f591611e78565b8681101580611619575b61160890611a38565b611612828c611a7a565b52016114ab565b50600f548111156115ff565b819395508092503d8311611653575b61163e8183611959565b810103126104ab57518892906115f55f6115e9565b503d611634565b505f6115b6565b5f9150138f6115b0565b50878113156115a1565b634e487b7160e01b5f52601160045260245ffd5b346104ab5761169736611800565b815f525f6020526116ae600160405f200154611d63565b815f525f60205260405f209060018060a01b031690815f5260205260ff60405f205416156116d857005b815f525f60205260405f20815f5260205260405f20600160ff1982541617905533917f2f8788117e7eff1d82e926ec794901d17c78024a50270940304540a733656f0d5f80a4005b346104ab575f3660031901126104ab576040517f00000000000000000000000000000000000000000000000000000000000000006001600160a01b03168152602090f35b346104ab5760203660031901126104ab576004355f525f6020526020600160405f200154604051908152f35b346104ab575f3660031901126104ab576020600154604051908152f35b346104ab5760203660031901126104ab576004359063ffffffff60e01b82168092036104ab57602091637965db0b60e01b81149081156117ef575b5015158152f35b6301ffc9a760e01b149050836117e8565b60409060031901126104ab57600435906024356001600160a01b03811681036104ab5790565b9181601f840112156104ab5782359167ffffffffffffffff83116104ab576020808501948460051b0101116104ab57565b60406003198201126104ab5767ffffffffffffffff916004358381116104ab578261188491600401611826565b939093926024359182116104ab5761189e91600401611826565b9091565b156118a957565b60405162461bcd60e51b815260206004820152601460248201527310dbdbdb191bdddb881b9bdd08195b185c1cd95960621b6044820152606490fd5b156118ec57565b60405162461bcd60e51b8152602060048201526015602482015274082e4e4c2f240d8cadccee8d040dad2e6dac2e8c6d605b1b6044820152606490fd5b67ffffffffffffffff81116112a957604052565b6080810190811067ffffffffffffffff8211176112a957604052565b90601f8019910116810190811067ffffffffffffffff8211176112a957604052565b67ffffffffffffffff81116112a95760051b60200190565b9061199d8261197b565b6119aa6040519182611959565b82815280926119bb601f199161197b565b0190602036910137565b91908110156119d55760051b0190565b634e487b7160e01b5f52603260045260245ffd5b3560ff811681036104ab5790565b156119fe57565b60405162461bcd60e51b815260206004820152601260248201527145786365656473206d6178206368616e676560701b6044820152606490fd5b15611a3f57565b60405162461bcd60e51b81526020600482015260136024820152725072696365206f7574206f6620626f756e647360681b6044820152606490fd5b80518210156119d55760209160051b010190565b9190808252602080920192915f5b828110611aaa575050505090565b9091929384359060ff82168092036104ab579081528201938201929190600101611a9c565b9190611ae391604084526040840191611a8e565b8181036020928301528251808252908201928201915f5b828110611b08575050505090565b835185529381019392810192600101611afa565b5f1981146116755760010190565b92919267ffffffffffffffff82116112a95760405191611b54601f8201601f191660200184611959565b8294818452818301116104ab578281602093845f960137010152565b81835290916001600160fb1b0383116104ab5760209260051b809284830137010190565b9290611bad90611bbb9593604086526040860191611a8e565b926020818503910152611b70565b90565b335f9081527f82f9588b0461dd6f85c741c2d077444688407204b11b9d91aca7d73ce23e497f6020908152604091829020547f48868f588032c2767aa096056904be47c4801b46f0d2481a28ff6b4d3dfae5f3919060ff1615611c2057505050565b611c2933611f6f565b8351611c348161193d565b604281528281019360603686378151156119d557603085538151600190600110156119d557607860218401536041905b808211611d20575050611cde5784611cba6048610f89936044979851988991610f558984019876020b1b1b2b9b9a1b7b73a3937b61d1030b1b1b7bab73a1604d1b8a52610f2c815180928d603789019101611f3d565b5194859362461bcd60e51b8552600485015251809281602486015285850190611f3d565b60648386519062461bcd60e51b825280600483015260248201527f537472696e67733a20686578206c656e67746820696e73756666696369656e746044820152fd5b9091600f811660108110156119d5576f181899199a1a9b1b9c1cb0b131b232b360811b901a611d4f8486611f5e565b5360041c918015611675575f190190611c64565b805f526020905f8252604091825f20335f52815260ff835f20541615611d8857505050565b611d9133611f6f565b8351611d9c8161193d565b604281528281019360603686378151156119d557603085538151600190600110156119d557607860218401536041905b808211611e22575050611cde5784611cba6048610f89936044979851988991610f558984019876020b1b1b2b9b9a1b7b73a3937b61d1030b1b1b7bab73a1604d1b8a52610f2c815180928d603789019101611f3d565b9091600f811660108110156119d5576f181899199a1a9b1b9c1cb0b131b232b360811b901a611e518486611f5e565b5360041c918015611675575f190190611dcc565b8181029291811591840414171561167557565b905f0b8015611ec8575f811315611ea257611e9560649183611e65565b0481018091116116755790565b607f19811461167557611ebb6064915f035f0b83611e65565b0481039081116116755790565b5090565b90815f525f60205260405f209060018060a01b031690815f5260205260ff60405f205416611ef8575050565b815f525f60205260405f20815f5260205260405f2060ff19815416905533917ff6391f5c32d9c69d2a47ea670b442974b53935d1edc7fd64eb21e047a839171b5f80a4565b5f5b838110611f4e5750505f910152565b8181015183820152602001611f3f565b9081518110156119d5570160200190565b604051906060820182811067ffffffffffffffff8211176112a957604052602a82526020820160403682378251156119d557603090538151600190600110156119d557607860218401536029905b808211612011575050611fcd5790565b606460405162461bcd60e51b815260206004820152602060248201527f537472696e67733a20686578206c656e67746820696e73756666696369656e746044820152fd5b9091600f811660108110156119d5576f181899199a1a9b1b9c1cb0b131b232b360811b901a6120408486611f5e565b5360041c918015611675575f190190611fbd56fe2abbf9ac364421a30f9e13fb9ae8ded674e2bf9e13b947f7d6cf42bcf47b1931a26469706673582212203a87721695ad9c803dfb0900061cbd797eaedf1b5eedb3b426f127d37dfde5b764736f6c634300081800332f8788117e7eff1d82e926ec794901d17c78024a50270940304540a733656f0d","linkReferences":{}},"methodIdentifiers":{"ADJUSTMENT_COOLDOWN()":"f19ba39a","AI_OPERATOR_ROLE()":"fb3d2e05","DEFAULT_ADMIN_ROLE()":"a217fddf","MAX_PRICE_CHANGE_PERCENT()":"75beb7b1","adjustCreatorTierPrices(uint8[],int8[])":"31011b49","adjustDistrictPrices(uint8[],int8[])":"dc1b151f","adjustLandUpgradePrices(uint8[],int8[])":"baee5323","adjustPrestigePrices(uint8[],int8[])":"db453710","adjustmentCount()":"8c470c50","bounds()":"5843a5ad","burnUtility()":"9f5002bf","creatorTools()":"4e3bbaa3","currentMetrics()":"a07faf5e","districtAccess()":"f361302e","emergencyOverridePrices(string,uint8[],uint256[])":"a600b6bb","getRoleAdmin(bytes32)":"248a9ca3","grantRole(bytes32,address)":"2f2ff15d","hasRole(bytes32,address)":"91d14854","landUpgrade()":"ecdbf153","lastAdjustmentTimestamp()":"0338c477","miniAppAccess()":"2e49ca10","prestige()":"9c7081df","renounceRole(bytes32,address)":"36568abe","revokeRole(bytes32,address)":"d547741f","supportsInterface(bytes4)":"01ffc9a7","updateMetrics(uint256,uint256,uint256,uint256,uint256,uint256,uint256)":"77a35c38"},"id":9}