{"abi":[{"type":"constructor","inputs":[{"name":"_burnUtility","type":"address","internalType":"address"}],"stateMutability":"nonpayable"},{"type":"function","name":"CREATOR_MANAGER_ROLE","inputs":[],"outputs":[{"name":"","type":"bytes32","internalType":"bytes32"}],"stateMutability":"view"},{"type":"function","name":"DEFAULT_ADMIN_ROLE","inputs":[],"outputs":[{"name":"","type":"bytes32","internalType":"bytes32"}],"stateMutability":"view"},{"type":"function","name":"batchSetCosts","inputs":[{"name":"tiers","type":"uint8[]","internalType":"uint8[]"},{"name":"costs","type":"uint256[]","internalType":"uint256[]"}],"outputs":[],"stateMutability":"nonpayable"},{"type":"function","name":"burnUtility","inputs":[],"outputs":[{"name":"","type":"address","internalType":"contract VoidBurnUtility"}],"stateMutability":"view"},{"type":"function","name":"creatorTier","inputs":[{"name":"","type":"address","internalType":"address"}],"outputs":[{"name":"","type":"uint8","internalType":"uint8"}],"stateMutability":"view"},{"type":"function","name":"getCreatorTier","inputs":[{"name":"creator","type":"address","internalType":"address"}],"outputs":[{"name":"","type":"uint8","internalType":"uint8"}],"stateMutability":"view"},{"type":"function","name":"getRoleAdmin","inputs":[{"name":"role","type":"bytes32","internalType":"bytes32"}],"outputs":[{"name":"","type":"bytes32","internalType":"bytes32"}],"stateMutability":"view"},{"type":"function","name":"getTierCost","inputs":[{"name":"tier","type":"uint8","internalType":"uint8"}],"outputs":[{"name":"","type":"uint256","internalType":"uint256"}],"stateMutability":"view"},{"type":"function","name":"getToolsForTier","inputs":[{"name":"tier","type":"uint8","internalType":"uint8"}],"outputs":[{"name":"","type":"string[]","internalType":"string[]"}],"stateMutability":"view"},{"type":"function","name":"grantRole","inputs":[{"name":"role","type":"bytes32","internalType":"bytes32"},{"name":"account","type":"address","internalType":"address"}],"outputs":[],"stateMutability":"nonpayable"},{"type":"function","name":"hasRole","inputs":[{"name":"role","type":"bytes32","internalType":"bytes32"},{"name":"account","type":"address","internalType":"address"}],"outputs":[{"name":"","type":"bool","internalType":"bool"}],"stateMutability":"view"},{"type":"function","name":"renounceRole","inputs":[{"name":"role","type":"bytes32","internalType":"bytes32"},{"name":"account","type":"address","internalType":"address"}],"outputs":[],"stateMutability":"nonpayable"},{"type":"function","name":"revokeRole","inputs":[{"name":"role","type":"bytes32","internalType":"bytes32"},{"name":"account","type":"address","internalType":"address"}],"outputs":[],"stateMutability":"nonpayable"},{"type":"function","name":"setTierCost","inputs":[{"name":"tier","type":"uint8","internalType":"uint8"},{"name":"cost","type":"uint256","internalType":"uint256"}],"outputs":[],"stateMutability":"nonpayable"},{"type":"function","name":"setToolsForTier","inputs":[{"name":"tier","type":"uint8","internalType":"uint8"},{"name":"tools","type":"string[]","internalType":"string[]"}],"outputs":[],"stateMutability":"nonpayable"},{"type":"function","name":"supportsInterface","inputs":[{"name":"interfaceId","type":"bytes4","internalType":"bytes4"}],"outputs":[{"name":"","type":"bool","internalType":"bool"}],"stateMutability":"view"},{"type":"function","name":"tierCosts","inputs":[{"name":"","type":"uint256","internalType":"uint256"}],"outputs":[{"name":"","type":"uint256","internalType":"uint256"}],"stateMutability":"view"},{"type":"function","name":"toolsByTier","inputs":[{"name":"","type":"uint8","internalType":"uint8"},{"name":"","type":"uint256","internalType":"uint256"}],"outputs":[{"name":"","type":"string","internalType":"string"}],"stateMutability":"view"},{"type":"function","name":"unlockCreatorTier","inputs":[{"name":"tier","type":"uint8","internalType":"uint8"}],"outputs":[],"stateMutability":"nonpayable"},{"type":"event","name":"CreatorTierUnlocked","inputs":[{"name":"creator","type":"address","indexed":true,"internalType":"address"},{"name":"tier","type":"uint8","indexed":true,"internalType":"uint8"},{"name":"voidBurned","type":"uint256","indexed":false,"internalType":"uint256"},{"name":"timestamp","type":"uint256","indexed":false,"internalType":"uint256"}],"anonymous":false},{"type":"event","name":"RoleAdminChanged","inputs":[{"name":"role","type":"bytes32","indexed":true,"internalType":"bytes32"},{"name":"previousAdminRole","type":"bytes32","indexed":true,"internalType":"bytes32"},{"name":"newAdminRole","type":"bytes32","indexed":true,"internalType":"bytes32"}],"anonymous":false},{"type":"event","name":"RoleGranted","inputs":[{"name":"role","type":"bytes32","indexed":true,"internalType":"bytes32"},{"name":"account","type":"address","indexed":true,"internalType":"address"},{"name":"sender","type":"address","indexed":true,"internalType":"address"}],"anonymous":false},{"type":"event","name":"RoleRevoked","inputs":[{"name":"role","type":"bytes32","indexed":true,"internalType":"bytes32"},{"name":"account","type":"address","indexed":true,"internalType":"address"},{"name":"sender","type":"address","indexed":true,"internalType":"address"}],"anonymous":false},{"type":"event","name":"TierCostUpdated","inputs":[{"name":"tier","type":"uint8","indexed":true,"internalType":"uint8"},{"name":"oldCost","type":"uint256","indexed":false,"internalType":"uint256"},{"name":"newCost","type":"uint256","indexed":false,"internalType":"uint256"},{"name":"timestamp","type":"uint256","indexed":false,"internalType":"uint256"}],"anonymous":false},{"type":"event","name":"ToolsUpdated","inputs":[{"name":"tier","type":"uint8","indexed":true,"internalType":"uint8"},{"name":"tools","type":"string[]","indexed":false,"internalType":"string[]"},{"name":"timestamp","type":"uint256","indexed":false,"internalType":"uint256"}],"anonymous":false}],"bytecode":{"object":"0x60a034620005cd57601f62001cfc38819003918201601f1916830192916001600160401b03841183851017620005d15780839260409586528339602092839181010312620005cd57516001600160a01b03811690819003620005cd5780156200058a576080525f80525f8152815f20335f52815260ff825f2054161562000553575b7ff0fb3b7be161dccaa893b4579bad029416c26008a1f03e33adf56b43ae49fd9b805f525f8252825f20335f52825260ff835f205416156200051a575b505f60025569152d02c7e14af68000006003556004906969e10de76676d080000082556a01a784379d99db420000006005556001805f52600690818352845f2091825468010000000000000000938482101562000507579062000126918482018155620005e5565b620004f557620001426200013b82546200060f565b826200064a565b7f426173696320334420417373657473000000000000000000000000000000001e90555f828152818552869020805490848210156200050757906200018c918482018155620005e5565b620004f557620001a16200013b82546200060f565b846f53696d706c6520536372697074696e6760801b019055815f52808452855f2080549084821015620005075790620001df918482018155620005e5565b620004f557620001f46200013b82546200060f565b60227021b7b9b6b2ba34b1b99021b932b0ba37b960791b01905560025f52808452855f208054908482101562000507579062000235918482018155620005e5565b949094620004f557620002546200024d86546200060f565b866200064a565b6024948571416476616e63656420536372697074696e6760701b01905560025f52818152865f2080549085821015620004e3579062000298918582018155620005e5565b620004d257620002ad6200013b82546200060f565b602c7f4d61726b6574706c616365205075626c697368696e670000000000000000000001905560025f52818152865f2080549085821015620004e35790620002fa918582018155620005e5565b620004d2576200030f6200013b82546200060f565b601e6e41737365742054656d706c6174657360881b01905560035f52818152865f2080549085821015620004e357906200034e918582018155620005e5565b620004d257620003636200013b82546200060f565b601e6e46756c6c2053444b2041636365737360881b01905560035f52818152865f2080549085821015620004e35790620003a2918582018155620005e5565b620004d257620003b76200013b82546200060f565b602a7f57686974652d4c6162656c204d696e692d41707073000000000000000000000001905560035f52818152865f2080549085821015620004e3579062000404918582018155620005e5565b620004d257620004196200013b82546200060f565b816f141c9a5bdc9a5d1e4814dd5c1c1bdc9d60821b01905560035f5252845f2090815492831015620004c05782018155620004559190620005e5565b929092620004b05750506200046f6200013b82546200060f565b7f437573746f6d20496e746567726174696f6e730000000000000000000000002690555161165b908162000681823960805181818161045f015261086d0152f35b5f90634e487b7160e01b8252525ffd5b83604186634e487b7160e01b5f52525ffd5b855f88634e487b7160e01b8252525ffd5b86604189634e487b7160e01b5f52525ffd5b5f86634e487b7160e01b82525260245ffd5b604187634e487b7160e01b5f525260245ffd5b805f525f8252825f20335f528252825f20600160ff19825416179055339033905f8051602062001cdc8339815191525f80a45f620000be565b5f80525f8152815f20335f528152815f20600160ff1982541617905533335f5f8051602062001cdc8339815191528180a462000081565b50606491519062461bcd60e51b82526004820152601c60248201527f496e76616c6964206275726e207574696c6974792061646472657373000000006044820152fd5b5f80fd5b634e487b7160e01b5f52604160045260245ffd5b8054821015620005fb575f5260205f2001905f90565b634e487b7160e01b5f52603260045260245ffd5b90600182811c921680156200063f575b60208310146200062b57565b634e487b7160e01b5f52602260045260245ffd5b91607f16916200061f565b601f821162000657575050565b5f52601f60205f20910160051c8101905b81811062000674575050565b5f81556001016200066856fe608060409080825260049182361015610016575f80fd5b5f915f3560e01c90816301950d1e14610e225750806301ffc9a714610dce578063047404f214610a6b5780630fe00118146107f2578063248a9ca3146107c85780632f2ff15d1461072157806336568abe146106905780637e08bf0314610664578063909da6951461053c57806391d14854146104f95780639f12f8791461048e5780639f5002bf1461044b578063a0a6e0b6146102eb578063a217fddf146102d1578063ba930d0414610297578063bfae14c71461025c578063c6a924ff146101de578063d547741f1461019c5763fd49d4aa146100f3575f80fd5b3461019857806003193601126101985761010b610e86565b906024356101176110e9565b60ff83169260018410158061018d575b61013090611062565b8581101561017a57600201805490829055915191825260208201524260408201527f742458d1f6c5e8fee7de53c4d47ce8b02716e5c4e4aeefcb47a2c926f7628a6590606090a280f35b634e487b7160e01b855260328652602485fd5b506003841115610127565b5080fd5b508290346101da57806003193601126101da576101d791356101d260016101c1610e70565b9383875286602052862001546112bf565b6114cf565b80f35b8280fd5b5090346102595781600319360112610259576101f8610e86565b60ff60243591168252600660205282822080548210156101da579061021c91610f0d565b939093610247576102438361023086610fc0565b9051918291602083526020830190610ee8565b0390f35b634e487b7160e01b8252819052602490fd5b80fd5b50346101985760203660031901126101985760209160ff9082906001600160a01b03610286610e5a565b168152600185522054169051908152f35b5034610198578160031936011261019857602090517ff0fb3b7be161dccaa893b4579bad029416c26008a1f03e33adf56b43ae49fd9b8152f35b503461019857816003193601126101985751908152602090f35b5082346101da57816003193601126101da5767ffffffffffffffff9080358281116104475761031d9036908301610e96565b9190926024906024359081116104435761033a9036908401610e96565b9190936103456110e9565b82810361040857875b818110610359578880f35b6103648183896110d9565b3560ff8116908181036104045761037c83878a6110d9565b35906001831015806103f9575b61039290611062565b878110156103e7576002018054908290558a51908152602081019190915242604082015260019291907f742458d1f6c5e8fee7de53c4d47ce8b02716e5c4e4aeefcb47a2c926f7628a6590606090a20161034e565b634e487b7160e01b8c5260328852858cfd5b506003831115610389565b8a80fd5b865162461bcd60e51b81526020818601526015602482015274082e4e4c2f240d8cadccee8d040dad2e6dac2e8c6d605b1b6044820152606490fd5b8680fd5b8480fd5b5034610198578160031936011261019857517f00000000000000000000000000000000000000000000000000000000000000006001600160a01b03168152602090f35b509034610259576020366003190112610259576104a9610e86565b906104c360ff8316600181101590816104ed575b50611062565b838210156104da5760208383600201549051908152f35b634e487b7160e01b815260328452602490fd5b6003915011155f6104bd565b5082346101da57816003193601126101da5781602093610517610e70565b92358152808552209060018060a01b03165f52825260ff815f20541690519015158152f35b503461019857602092836003193601126101da5760ff61055a610e86565b1693600194600181101580610659575b61057390611062565b8452600681528284209283549267ffffffffffffffff8411610646575091849086928451916105a7828260051b0184610f9e565b8083528183018097855282852085915b83831061061957505050508451948186019282875251809352808601908360051b8701019693905b8382106105ec5786880387f35b90919293948380610608839a603f198b82030186528951610ee8565b9997019594939190910191016105df565b90878086819c9a9594610630859d999a9b9d610fc0565b81520192019201925098969897959493976105b7565b634e487b7160e01b865260419052602485fd5b50600381111561056a565b5082346101da5760203660031901126101da578035908110156101da5760209250600201549051908152f35b5091346101985782600319360112610198576106aa610e70565b90336001600160a01b038316036106c657906101d791356114cf565b608490602085519162461bcd60e51b8352820152602f60248201527f416363657373436f6e74726f6c3a2063616e206f6e6c792072656e6f756e636560448201526e103937b632b9903337b91039b2b63360891b6064820152fd5b5082346101da57816003193601126101da57359061073d610e70565b9082845283602052610754600182862001546112bf565b828452836020528084209160018060a01b031691825f5260205260ff815f2054161561077e578380f35b82845283602052808420825f526020525f20600160ff1982541617905533917f2f8788117e7eff1d82e926ec794901d17c78024a50270940304540a733656f0d8480a48180808380f35b5082346101da5760203660031901126101da57816020936001923581528085522001549051908152f35b5082346109d257602091826003193601126109d25761080f610e86565b9260ff841693600185101580610a60575b61082990611062565b335f52600182528460ff845f2054161015610a2b57335f526001825260ff835f20541660ff610857836110b3565b16036109e957838110156109d6576002810154937f00000000000000000000000000000000000000000000000000000000000000006001600160a01b03169161089f906113eb565b916108e0602d865180956c43524541544f525f544945525f60981b888301526108d0815180928a8686019101610ec7565b810103600d810186520184610f9e565b803b156109d25761091e5f93918492875195868094819363d93550a160e01b83528c8984015260026024840152606060448401526064830190610ee8565b03925af180156109c857610976575b5050907fa6bc840cac904ec31c990c83a2f47c71895150e14cba365583c5ca12cb4bf56891338652600181528186208560ff19825416179055815193845242908401523392a380f35b9091955067ffffffffffffffff82116109b5575081525f937fa6bc840cac904ec31c990c83a2f47c71895150e14cba365583c5ca12cb4bf5688661092d565b604190634e487b7160e01b5f525260245ffd5b84513d5f823e3d90fd5b5f80fd5b603284634e487b7160e01b5f525260245ffd5b50905162461bcd60e51b815291820152601860248201527f4d75737420756e6c6f636b2073657175656e7469616c6c7900000000000000006044820152606490fd5b50905162461bcd60e51b815291820152601060248201526f105b1c9958591e481d5b9b1bd8dad95960821b6044820152606490fd5b506003851115610820565b8382346109d257806003193601126109d257610a85610e86565b906024359167ffffffffffffffff908184116109d257610aaa60ff9436908701610e96565b949091610ab56110e9565b16936001918286101580610dc3575b610acd90611062565b855f5260209660068852855f208054905f815581610d54575b50505f94939291945b828110610bb65750508085519580870190875252606085019360608260051b8701019481945f925b848410610b4c57428b8a0152897f7e778a424c174a3dd9e1cca2105d03e98a8ebe5a873277dc2f744efb49e7446d8a8a038ba2005b90919293949596605f198982030184528735601e19833603018112156109d25782018b81019190358481116109d25780360383136109d2578c8282808c96849695859652848401375f828201840152601f01601f1916010199019796959190910193019190610b17565b875f96939495965260068952865f2060059082821b850135601e19863603018112156109d2578501918235918983116109d2578236038d8501136109d25780549068010000000000000000821015610d415790610c17918a82018155610f0d565b939093610d2f578392918d91610c2f8b979654610f36565b91601f92838111610cf9575b50505f918411600114610c7e575f92919084610c71575b5050505f19600383901b1c191690841b1790555b019493929194610aef565b01013590508c8e80610c52565b5f85815283812092979695949390601f198516905b818110610cd25750978488999896979810610cb7575b50505050811b019055610c66565b5f1960f88660031b161c19920101351690558d808e81610ca9565b9397899698838597999b819496010135815501950192018f90918c97959398969492610c93565b610d1f91875f52855f209085808901821c830193888a10610d26575b01901c019061109d565b8f80610c3b565b93508293610d15565b5f86634e487b7160e01b82525260245ffd5b604187634e487b7160e01b5f525260245ffd5b5f5284895f20918201915b828110610d6c5750610ae6565b610d768154610f36565b80610d85575b50018590610d5f565b601f908c828211600114610da0575050505f81555b8b610d7c565b5f92610dba918585528420920160051c820185830161109d565b81835555610d9a565b506003861115610ac4565b5082346109d25760203660031901126109d2573563ffffffff60e01b81168091036109d257602091637965db0b60e01b8214918215610e11575b50519015158152f35b6301ffc9a760e01b14915083610e08565b9050346109d25760203660031901126109d25760209160ff906001600160a01b03610e4b610e5a565b165f52600184525f2054168152f35b600435906001600160a01b03821682036109d257565b602435906001600160a01b03821682036109d257565b6004359060ff821682036109d257565b9181601f840112156109d25782359167ffffffffffffffff83116109d2576020808501948460051b0101116109d257565b5f5b838110610ed85750505f910152565b8181015183820152602001610ec9565b90602091610f0181518092818552858086019101610ec7565b601f01601f1916010190565b8054821015610f22575f5260205f2001905f90565b634e487b7160e01b5f52603260045260245ffd5b90600182811c92168015610f64575b6020831014610f5057565b634e487b7160e01b5f52602260045260245ffd5b91607f1691610f45565b6080810190811067ffffffffffffffff821117610f8a57604052565b634e487b7160e01b5f52604160045260245ffd5b90601f8019910116810190811067ffffffffffffffff821117610f8a57604052565b9060405191825f8254610fd281610f36565b908184526020946001916001811690815f146110405750600114611002575b50505061100092500383610f9e565b565b5f90815285812095935091905b81831061102857505061100093508201015f8080610ff1565b8554888401850152948501948794509183019161100f565b9250505061100094925060ff191682840152151560051b8201015f8080610ff1565b1561106957565b60405162461bcd60e51b815260206004820152600c60248201526b24b73b30b634b2103a34b2b960a11b6044820152606490fd5b8181106110a8575050565b5f815560010161109d565b60ff5f199116019060ff82116110c557565b634e487b7160e01b5f52601160045260245ffd5b9190811015610f225760051b0190565b335f9081527f7c36498513eb2a52f24cdd25cdd4d3809aaf806cf6f1e9b90dbcfc5f28a7ef2e6020908152604091829020547ff0fb3b7be161dccaa893b4579bad029416c26008a1f03e33adf56b43ae49fd9b9060ff161561114a57505050565b61115333611540565b90835161115f81610f6e565b60428152838101916060368437815115610f225760308353815160019060011015610f2257607860218401536041905b80821161127c57505061123a57604861123693869361121a9361120b985198899376020b1b1b2b9b9a1b7b73a3937b61d1030b1b1b7bab73a1604d1b8a8601526111e2815180928c603789019101610ec7565b8401917001034b99036b4b9b9b4b733903937b6329607d1b603784015251809386840190610ec7565b01036028810187520185610f9e565b5192839262461bcd60e51b845260048401526024830190610ee8565b0390fd5b60648486519062461bcd60e51b825280600483015260248201527f537472696e67733a20686578206c656e67746820696e73756666696369656e746044820152fd5b9091600f81166010811015610f22576f181899199a1a9b1b9c1cb0b131b232b360811b901a6112ab84866113da565b5360041c9180156110c5575f19019061118f565b805f5260205f8152604091825f20335f52825260ff835f205416156112e357505050565b6112ec33611540565b9083516112f881610f6e565b60428152838101916060368437815115610f225760308353815160019060011015610f2257607860218401536041905b80821161137b57505061123a57604861123693869361121a9361120b985198899376020b1b1b2b9b9a1b7b73a3937b61d1030b1b1b7bab73a1604d1b8a8601526111e2815180928c603789019101610ec7565b9091600f81166010811015610f22576f181899199a1a9b1b9c1cb0b131b232b360811b901a6113aa84866113da565b5360041c9180156110c5575f190190611328565b67ffffffffffffffff8111610f8a57601f01601f191660200190565b908151811015610f22570160200190565b60ff908181161561149f575f9282825b1693841561141a5783168381146110c557600a600185920195046113fb565b93509190818085169461142c866113be565b9561143a6040519788610f9e565b808752611449601f19916113be565b01366020880137915b1690811561149a57611463906110b3565b90600a8381830616603001918483116110c557849260f81b6001600160f81b0319165f1a611493858516896113da565b5304611452565b505050565b50506040516040810181811067ffffffffffffffff821117610f8a5760405260018152600360fc1b602082015290565b90815f525f60205260405f209060018060a01b031690815f5260205260ff60405f2054166114fb575050565b815f525f60205260405f20815f5260205260405f2060ff19815416905533917ff6391f5c32d9c69d2a47ea670b442974b53935d1edc7fd64eb21e047a839171b5f80a4565b604051906060820182811067ffffffffffffffff821117610f8a57604052602a8252602082016040368237825115610f225760309053815160019060011015610f2257607860218401536029905b8082116115e257505061159e5790565b606460405162461bcd60e51b815260206004820152602060248201527f537472696e67733a20686578206c656e67746820696e73756666696369656e746044820152fd5b9091600f81166010811015610f22576f181899199a1a9b1b9c1cb0b131b232b360811b901a61161184866113da565b5360041c9180156110c5575f19019061158e56fea2646970667358221220a142b8af19248b6cec8c047b3dc7189210e7ad5a68a96663ce1a051e47f4843664736f6c634300081800332f8788117e7eff1d82e926ec794901d17c78024a50270940304540a733656f0d","linkReferences":{}},"methodIdentifiers":{"CREATOR_MANAGER_ROLE()":"ba930d04","DEFAULT_ADMIN_ROLE()":"a217fddf","batchSetCosts(uint8[],uint256[])":"a0a6e0b6","burnUtility()":"9f5002bf","creatorTier(address)":"01950d1e","getCreatorTier(address)":"bfae14c7","getRoleAdmin(bytes32)":"248a9ca3","getTierCost(uint8)":"9f12f879","getToolsForTier(uint8)":"909da695","grantRole(bytes32,address)":"2f2ff15d","hasRole(bytes32,address)":"91d14854","renounceRole(bytes32,address)":"36568abe","revokeRole(bytes32,address)":"d547741f","setTierCost(uint8,uint256)":"fd49d4aa","setToolsForTier(uint8,string[])":"047404f2","supportsInterface(bytes4)":"01ffc9a7","tierCosts(uint256)":"7e08bf03","toolsByTier(uint8,uint256)":"c6a924ff","unlockCreatorTier(uint8)":"0fe00118"},"id":10}