{"abi":[{"type":"constructor","inputs":[{"name":"_burnUtility","type":"address","internalType":"address"}],"stateMutability":"nonpayable"},{"type":"function","name":"DEFAULT_ADMIN_ROLE","inputs":[],"outputs":[{"name":"","type":"bytes32","internalType":"bytes32"}],"stateMutability":"view"},{"type":"function","name":"DISTRICT_MANAGER_ROLE","inputs":[],"outputs":[{"name":"","type":"bytes32","internalType":"bytes32"}],"stateMutability":"view"},{"type":"function","name":"batchSetPrices","inputs":[{"name":"districtIds","type":"uint8[]","internalType":"uint8[]"},{"name":"prices","type":"uint256[]","internalType":"uint256[]"}],"outputs":[],"stateMutability":"nonpayable"},{"type":"function","name":"burnUtility","inputs":[],"outputs":[{"name":"","type":"address","internalType":"contract VoidBurnUtility"}],"stateMutability":"view"},{"type":"function","name":"districtUnlockPrice","inputs":[{"name":"","type":"uint8","internalType":"uint8"}],"outputs":[{"name":"","type":"uint256","internalType":"uint256"}],"stateMutability":"view"},{"type":"function","name":"getRoleAdmin","inputs":[{"name":"role","type":"bytes32","internalType":"bytes32"}],"outputs":[{"name":"","type":"bytes32","internalType":"bytes32"}],"stateMutability":"view"},{"type":"function","name":"getUnlockedCount","inputs":[{"name":"user","type":"address","internalType":"address"}],"outputs":[{"name":"","type":"uint8","internalType":"uint8"}],"stateMutability":"view"},{"type":"function","name":"grantRole","inputs":[{"name":"role","type":"bytes32","internalType":"bytes32"},{"name":"account","type":"address","internalType":"address"}],"outputs":[],"stateMutability":"nonpayable"},{"type":"function","name":"hasRole","inputs":[{"name":"role","type":"bytes32","internalType":"bytes32"},{"name":"account","type":"address","internalType":"address"}],"outputs":[{"name":"","type":"bool","internalType":"bool"}],"stateMutability":"view"},{"type":"function","name":"hasUnlocked","inputs":[{"name":"","type":"address","internalType":"address"},{"name":"","type":"uint8","internalType":"uint8"}],"outputs":[{"name":"","type":"bool","internalType":"bool"}],"stateMutability":"view"},{"type":"function","name":"isDistrictUnlocked","inputs":[{"name":"user","type":"address","internalType":"address"},{"name":"districtId","type":"uint8","internalType":"uint8"}],"outputs":[{"name":"","type":"bool","internalType":"bool"}],"stateMutability":"view"},{"type":"function","name":"renounceRole","inputs":[{"name":"role","type":"bytes32","internalType":"bytes32"},{"name":"account","type":"address","internalType":"address"}],"outputs":[],"stateMutability":"nonpayable"},{"type":"function","name":"requireSequentialUnlock","inputs":[],"outputs":[{"name":"","type":"bool","internalType":"bool"}],"stateMutability":"view"},{"type":"function","name":"revokeRole","inputs":[{"name":"role","type":"bytes32","internalType":"bytes32"},{"name":"account","type":"address","internalType":"address"}],"outputs":[],"stateMutability":"nonpayable"},{"type":"function","name":"setDistrictPrice","inputs":[{"name":"districtId","type":"uint8","internalType":"uint8"},{"name":"price","type":"uint256","internalType":"uint256"}],"outputs":[],"stateMutability":"nonpayable"},{"type":"function","name":"setSequentialMode","inputs":[{"name":"enabled","type":"bool","internalType":"bool"}],"outputs":[],"stateMutability":"nonpayable"},{"type":"function","name":"supportsInterface","inputs":[{"name":"interfaceId","type":"bytes4","internalType":"bytes4"}],"outputs":[{"name":"","type":"bool","internalType":"bool"}],"stateMutability":"view"},{"type":"function","name":"unlockDistrict","inputs":[{"name":"districtId","type":"uint8","internalType":"uint8"}],"outputs":[],"stateMutability":"nonpayable"},{"type":"function","name":"unlockedCount","inputs":[{"name":"","type":"address","internalType":"address"}],"outputs":[{"name":"","type":"uint8","internalType":"uint8"}],"stateMutability":"view"},{"type":"event","name":"DistrictPriceUpdated","inputs":[{"name":"districtId","type":"uint8","indexed":true,"internalType":"uint8"},{"name":"oldPrice","type":"uint256","indexed":false,"internalType":"uint256"},{"name":"newPrice","type":"uint256","indexed":false,"internalType":"uint256"},{"name":"timestamp","type":"uint256","indexed":false,"internalType":"uint256"}],"anonymous":false},{"type":"event","name":"DistrictUnlocked","inputs":[{"name":"user","type":"address","indexed":true,"internalType":"address"},{"name":"districtId","type":"uint8","indexed":true,"internalType":"uint8"},{"name":"voidBurned","type":"uint256","indexed":false,"internalType":"uint256"},{"name":"timestamp","type":"uint256","indexed":false,"internalType":"uint256"}],"anonymous":false},{"type":"event","name":"RoleAdminChanged","inputs":[{"name":"role","type":"bytes32","indexed":true,"internalType":"bytes32"},{"name":"previousAdminRole","type":"bytes32","indexed":true,"internalType":"bytes32"},{"name":"newAdminRole","type":"bytes32","indexed":true,"internalType":"bytes32"}],"anonymous":false},{"type":"event","name":"RoleGranted","inputs":[{"name":"role","type":"bytes32","indexed":true,"internalType":"bytes32"},{"name":"account","type":"address","indexed":true,"internalType":"address"},{"name":"sender","type":"address","indexed":true,"internalType":"address"}],"anonymous":false},{"type":"event","name":"RoleRevoked","inputs":[{"name":"role","type":"bytes32","indexed":true,"internalType":"bytes32"},{"name":"account","type":"address","indexed":true,"internalType":"address"},{"name":"sender","type":"address","indexed":true,"internalType":"address"}],"anonymous":false},{"type":"event","name":"SequentialModeToggled","inputs":[{"name":"enabled","type":"bool","indexed":false,"internalType":"bool"},{"name":"timestamp","type":"uint256","indexed":false,"internalType":"uint256"}],"anonymous":false}],"bytecode":{"object":"0x60a0346101e457601f61155338819003918201601f1916830192916001600160401b038411838510176101e857808392604095865283396020928391810103126101e457516001600160a01b038116908190036101e45780156101a157906001916080525f80525f8152825f20335f52815260ff835f2054161561016d575b7fd3d0c89b37c9cc688e2c38a923ee221f915c3130939bf2190435d2a2b9cb4e52805f525f8252835f20335f52825260ff845f20541615610137575b50815f52525f8181205560025f5269152d02c7e14af6800000815f205560035f526934f086f3b33b68400000815f205560045f526969e10de76676d0800000815f205560055f5269d3c21bcecceda1000000815f205560ff19600454166004555161133690816101fd82396080518181816103cb0152610ae20152f35b805f525f8252835f20335f528252835f208360ff19825416179055339033905f805160206115338339815191525f80a45f6100ba565b5f80525f8152825f20335f528152825f208260ff1982541617905533335f5f805160206115338339815191528180a461007e565b50606491519062461bcd60e51b82526004820152601c60248201527f496e76616c6964206275726e207574696c6974792061646472657373000000006044820152fd5b5f80fd5b634e487b7160e01b5f52604160045260245ffdfe6080604090808252600480361015610015575f80fd5b5f3560e01c91826301ffc9a7146108a057508163248a9ca31461087757816326b8459a146108565781632f2ff15d146107b35781632f91208c1461077957816336568abe146106e85781634e965266146106975781635f7c7851146102fc57816376cff14e1461067657816391d1485414610633578163922065af146103fa5781639f5002bf146103b7578163a217fddf1461039d578163a25550f11461036c578163a2d811ba14610336578163b3cf1769146102fc578163ba3c5226146101c2578163d547741f14610187575063f8c455a9146100f1575f80fd5b346101835780600319360112610183577f1af2a5561aef9ac29f1cf0487634b0b17235e192762b95c9d1a99cd6cb22cf7261012a6108f2565b9160ff60243593610139610f02565b1692600284101580610178575b61014f9061096f565b5f84815260016020908152908390208054908390559251928352820152426040820152606090a2005b506005841115610146565b5f80fd5b82346101835780600319360112610183576101c091356101bb60016101aa610912565b93835f525f6020525f2001546110ab565b6111aa565b005b823461018357806003193601126101835767ffffffffffffffff908235828111610183576101f3903690850161093e565b9390926024359081116101835761020d903690830161093e565b949091610218610f02565b8582036102c157505f5b81811061022b57005b610236818387610dd0565b359060ff8216809203610183576001917f1af2a5561aef9ac29f1cf0487634b0b17235e192762b95c9d1a99cd6cb22cf72610272838a88610dd0565b356002831015806102b6575b6102879061096f565b5f838152602086815290899020805490839055895190815290810191909152426040820152606090a201610222565b50600583111561027e565b606490602085519162461bcd60e51b83528201526015602482015274082e4e4c2f240d8cadccee8d040dad2e6dac2e8c6d605b1b6044820152fd5b8234610183576020366003190112610183576020906001600160a01b03610321610928565b165f526003825260ff815f2054169051908152f35b8234610183578060031936011261018357602090610363610355610928565b61035d610902565b90610d98565b90519015158152f35b82346101835760203660031901126101835760209060ff61038b6108f2565b165f5260018252805f20549051908152f35b8234610183575f36600319011261018357602090515f8152f35b8234610183575f36600319011261018357517f00000000000000000000000000000000000000000000000000000000000000006001600160a01b03168152602090f35b8234610183576020918260031936011261018357803590811515809203610183575f80525f8452825f20335f52845260ff835f2054161561047257927fc5f756fcf7800f813b99c6184b0b60eea8d66267f94af6da2efcbcc0dab2881e9360ff1981541660ff841617905582519182524290820152a1005b91905061047e3361121b565b5f825161048a81610a09565b60428152858101916060368437815115610620576030835381516001906001101561060d57607860218401536041905b8082116105a557505061056457604861053793859361054693610560975196879376020b1b1b2b9b9a1b7b73a3937b61d1030b1b1b7bab73a1604d1b8c86015261050e8c82519283916037890191016109e8565b8401917001034b99036b4b9b9b4b733903937b6329607d1b6037840152518093868401906109e8565b01036028810185520183610a39565b5193849362461bcd60e51b85528401526024830190610a5b565b0390fd5b606485878087519262461bcd60e51b845283015260248201527f537472696e67733a20686578206c656e67746820696e73756666696369656e746044820152fd5b9091600f811660108110156105fa576f181899199a1a9b1b9c1cb0b131b232b360811b901a6105d48486610e10565b53871c9180156105e7575f1901906104ba565b601188634e487b7160e01b5f525260245ffd5b603289634e487b7160e01b5f525260245ffd5b603287634e487b7160e01b5f525260245ffd5b603286634e487b7160e01b5f525260245ffd5b823461018357806003193601126101835760209161064f610912565b90355f525f8352815f209060018060a01b03165f52825260ff815f20541690519015158152f35b8234610183575f3660031901126101835760ff602092541690519015158152f35b82346101835780600319360112610183576020906106b3610928565b6106bb610902565b6001600160a01b039091165f9081526002845282812060ff92831682528452829020549151911615158152f35b905034610183578160031936011261018357610702610912565b90336001600160a01b0383160361071e576101c09250356111aa565b608490602084519162461bcd60e51b8352820152602f60248201527f416363657373436f6e74726f6c3a2063616e206f6e6c792072656e6f756e636560448201526e103937b632b9903337b91039b2b63360891b6064820152fd5b8234610183575f36600319011261018357602090517fd3d0c89b37c9cc688e2c38a923ee221f915c3130939bf2190435d2a2b9cb4e528152f35b90503461018357816003193601126101835735906107cf610912565b90825f525f6020526107e66001825f2001546110ab565b5f83815260208181528282206001600160a01b039094168083529390528190205460ff161561081157005b825f525f602052805f20825f526020525f20600160ff1982541617905533917f2f8788117e7eff1d82e926ec794901d17c78024a50270940304540a733656f0d5f80a4005b34610183576020366003190112610183576101c06108726108f2565b610a80565b823461018357602036600319011261018357602091355f525f82526001815f2001549051908152f35b903461018357602036600319011261018357359063ffffffff60e01b821680920361018357602091637965db0b60e01b81149081156108e1575b5015158152f35b6301ffc9a760e01b149050836108da565b6004359060ff8216820361018357565b6024359060ff8216820361018357565b602435906001600160a01b038216820361018357565b600435906001600160a01b038216820361018357565b9181601f840112156101835782359167ffffffffffffffff8311610183576020808501948460051b01011161018357565b1561097657565b60405162461bcd60e51b8152602060048201526013602482015272125b9d985b1a5908191a5cdd1c9a58dd081251606a1b6044820152606490fd5b60ff1660ff81146109c25760010190565b634e487b7160e01b5f52601160045260245ffd5b60ff5f199116019060ff82116109c257565b5f5b8381106109f95750505f910152565b81810151838201526020016109ea565b6080810190811067ffffffffffffffff821117610a2557604052565b634e487b7160e01b5f52604160045260245ffd5b90601f8019910116810190811067ffffffffffffffff821117610a2557604052565b90602091610a74815180928185528580860191016109e8565b601f01601f1916010190565b60ff90818116916001908184101580610d8d575b610a9d9061096f565b5f91335f5260209060028252604092835f20875f52835280845f205416610d5657818714610ce0578060045416610c6d575b865f52818352835f2054958615610c30577f00000000000000000000000000000000000000000000000000000000000000006001600160a01b031690610b1490610e21565b90610b516029875180946844495354524943545f60b81b89830152610b41815180928b86860191016109e8565b8101036009810185520183610a39565b803b1561018357610b8e915f918983895180968195829463d93550a160e01b84526004840152836024840152606060448401526064830190610a5b565b03925af18015610c2657610c0a575b50837f88e56c516b18aae10946f27c65eaef6d82b8308f9795f306d9292b7acdbce1239533815260028552818120895f528552815f2060ff199485825416179055338152600385522091825491610bf58184166109b1565b169116179055815193845242908401523392a3565b945067ffffffffffffffff8511610a25579383525f9383610b9d565b85513d5f823e3d90fd5b845162461bcd60e51b81526004810185905260166024820152754469737472696374206e6f7420617661696c61626c6560501b6044820152606490fd5b335f5260028352835f2081610c81886109d6565b165f52835280845f205416610acf57835162461bcd60e51b815260048101849052602360248201527f4d75737420756e6c6f636b2070726576696f75732064697374726963742066696044820152621c9cdd60ea1b6064820152608490fd5b91945094507f88e56c516b18aae10946f27c65eaef6d82b8308f9795f306d9292b7acdbce1239250335f5260028452815f20855f528452815f209060ff19918683825416179055335f5260038552825f2091825491610d408184166109b1565b1691161790558051925f845242908401523392a3565b835162461bcd60e51b815260048101849052601060248201526f105b1c9958591e481d5b9b1bd8dad95960821b6044820152606490fd5b506005841115610a94565b9060ff169060018214610dc95760018060a01b03165f52600260205260405f20905f5260205260ff60405f20541690565b5050600190565b9190811015610de05760051b0190565b634e487b7160e01b5f52603260045260245ffd5b67ffffffffffffffff8111610a2557601f01601f191660200190565b908151811015610de0570160200190565b60ff9182821615610ed1575f9280835b16938415610e4c57600a610e4583926109b1565b9504610e31565b935090918180851694610e5e86610df4565b95610e6c6040519788610a39565b808752610e7b601f1991610df4565b01366020880137915b16908115610ecc57610e95906109d6565b90600a8381830616603001918483116109c257849260f81b6001600160f81b0319165f1a610ec585851689610e10565b5304610e84565b505050565b9150506040516040810181811067ffffffffffffffff821117610a255760405260018152600360fc1b602082015290565b335f9081527fb0626524325750722096e8d4fd794e6b37bb35ddc6190577e7064bade7da14496020908152604091829020547fd3d0c89b37c9cc688e2c38a923ee221f915c3130939bf2190435d2a2b9cb4e529060ff1615610f6357505050565b610f6c3361121b565b908351610f7881610a09565b60428152838101916060368437815115610de05760308353815160019060011015610de057607860218401536041905b80821161106857505061102657604861056093869361100a93610ffb985198899376020b1b1b2b9b9a1b7b73a3937b61d1030b1b1b7bab73a1604d1b8a86015261050e815180928c6037890191016109e8565b01036028810187520185610a39565b5192839262461bcd60e51b845260048401526024830190610a5b565b60648486519062461bcd60e51b825280600483015260248201527f537472696e67733a20686578206c656e67746820696e73756666696369656e746044820152fd5b9091600f81166010811015610de0576f181899199a1a9b1b9c1cb0b131b232b360811b901a6110978486610e10565b5360041c9180156109c2575f190190610fa8565b805f5260205f8152604091825f20335f52825260ff835f205416156110cf57505050565b6110d83361121b565b9083516110e481610a09565b60428152838101916060368437815115610de05760308353815160019060011015610de057607860218401536041905b80821161116757505061102657604861056093869361100a93610ffb985198899376020b1b1b2b9b9a1b7b73a3937b61d1030b1b1b7bab73a1604d1b8a86015261050e815180928c6037890191016109e8565b9091600f81166010811015610de0576f181899199a1a9b1b9c1cb0b131b232b360811b901a6111968486610e10565b5360041c9180156109c2575f190190611114565b90815f525f60205260405f209060018060a01b031690815f5260205260ff60405f2054166111d6575050565b815f525f60205260405f20815f5260205260405f2060ff19815416905533917ff6391f5c32d9c69d2a47ea670b442974b53935d1edc7fd64eb21e047a839171b5f80a4565b604051906060820182811067ffffffffffffffff821117610a2557604052602a8252602082016040368237825115610de05760309053815160019060011015610de057607860218401536029905b8082116112bd5750506112795790565b606460405162461bcd60e51b815260206004820152602060248201527f537472696e67733a20686578206c656e67746820696e73756666696369656e746044820152fd5b9091600f81166010811015610de0576f181899199a1a9b1b9c1cb0b131b232b360811b901a6112ec8486610e10565b5360041c9180156109c2575f19019061126956fea26469706673582212203b54334bd355374290ced40d819be5d8015cbd35ebc39b6ef50afcc7ccf2e88864736f6c634300081800332f8788117e7eff1d82e926ec794901d17c78024a50270940304540a733656f0d","linkReferences":{}},"methodIdentifiers":{"DEFAULT_ADMIN_ROLE()":"a217fddf","DISTRICT_MANAGER_ROLE()":"2f91208c","batchSetPrices(uint8[],uint256[])":"ba3c5226","burnUtility()":"9f5002bf","districtUnlockPrice(uint8)":"a25550f1","getRoleAdmin(bytes32)":"248a9ca3","getUnlockedCount(address)":"b3cf1769","grantRole(bytes32,address)":"2f2ff15d","hasRole(bytes32,address)":"91d14854","hasUnlocked(address,uint8)":"4e965266","isDistrictUnlocked(address,uint8)":"a2d811ba","renounceRole(bytes32,address)":"36568abe","requireSequentialUnlock()":"76cff14e","revokeRole(bytes32,address)":"d547741f","setDistrictPrice(uint8,uint256)":"f8c455a9","setSequentialMode(bool)":"922065af","supportsInterface(bytes4)":"01ffc9a7","unlockDistrict(uint8)":"26b8459a","unlockedCount(address)":"5f7c7851"},"id":11}