{"abi":[{"type":"constructor","inputs":[{"name":"_burnUtility","type":"address","internalType":"address"}],"stateMutability":"nonpayable"},{"type":"function","name":"DEFAULT_ADMIN_ROLE","inputs":[],"outputs":[{"name":"","type":"bytes32","internalType":"bytes32"}],"stateMutability":"view"},{"type":"function","name":"LAND_MANAGER_ROLE","inputs":[],"outputs":[{"name":"","type":"bytes32","internalType":"bytes32"}],"stateMutability":"view"},{"type":"function","name":"batchSetCosts","inputs":[{"name":"levels","type":"uint8[]","internalType":"uint8[]"},{"name":"costs","type":"uint256[]","internalType":"uint256[]"}],"outputs":[],"stateMutability":"nonpayable"},{"type":"function","name":"batchSetOwnership","inputs":[{"name":"owners","type":"address[]","internalType":"address[]"},{"name":"parcelIds","type":"uint256[]","internalType":"uint256[]"},{"name":"ownedFlags","type":"bool[]","internalType":"bool[]"}],"outputs":[],"stateMutability":"nonpayable"},{"type":"function","name":"burnUtility","inputs":[],"outputs":[{"name":"","type":"address","internalType":"contract VoidBurnUtility"}],"stateMutability":"view"},{"type":"function","name":"getRoleAdmin","inputs":[{"name":"role","type":"bytes32","internalType":"bytes32"}],"outputs":[{"name":"","type":"bytes32","internalType":"bytes32"}],"stateMutability":"view"},{"type":"function","name":"getUpgradeCost","inputs":[{"name":"level","type":"uint8","internalType":"uint8"}],"outputs":[{"name":"","type":"uint256","internalType":"uint256"}],"stateMutability":"view"},{"type":"function","name":"getUpgradeLevel","inputs":[{"name":"owner","type":"address","internalType":"address"},{"name":"parcelId","type":"uint256","internalType":"uint256"}],"outputs":[{"name":"","type":"uint8","internalType":"uint8"}],"stateMutability":"view"},{"type":"function","name":"grantRole","inputs":[{"name":"role","type":"bytes32","internalType":"bytes32"},{"name":"account","type":"address","internalType":"address"}],"outputs":[],"stateMutability":"nonpayable"},{"type":"function","name":"hasRole","inputs":[{"name":"role","type":"bytes32","internalType":"bytes32"},{"name":"account","type":"address","internalType":"address"}],"outputs":[{"name":"","type":"bool","internalType":"bool"}],"stateMutability":"view"},{"type":"function","name":"ownsParcel","inputs":[{"name":"","type":"address","internalType":"address"},{"name":"","type":"uint256","internalType":"uint256"}],"outputs":[{"name":"","type":"bool","internalType":"bool"}],"stateMutability":"view"},{"type":"function","name":"parcelUpgradeLevel","inputs":[{"name":"","type":"address","internalType":"address"},{"name":"","type":"uint256","internalType":"uint256"}],"outputs":[{"name":"","type":"uint8","internalType":"uint8"}],"stateMutability":"view"},{"type":"function","name":"renounceRole","inputs":[{"name":"role","type":"bytes32","internalType":"bytes32"},{"name":"account","type":"address","internalType":"address"}],"outputs":[],"stateMutability":"nonpayable"},{"type":"function","name":"revokeRole","inputs":[{"name":"role","type":"bytes32","internalType":"bytes32"},{"name":"account","type":"address","internalType":"address"}],"outputs":[],"stateMutability":"nonpayable"},{"type":"function","name":"setParcelOwnership","inputs":[{"name":"owner","type":"address","internalType":"address"},{"name":"parcelId","type":"uint256","internalType":"uint256"},{"name":"owned","type":"bool","internalType":"bool"}],"outputs":[],"stateMutability":"nonpayable"},{"type":"function","name":"setUpgradeCost","inputs":[{"name":"level","type":"uint8","internalType":"uint8"},{"name":"cost","type":"uint256","internalType":"uint256"}],"outputs":[],"stateMutability":"nonpayable"},{"type":"function","name":"supportsInterface","inputs":[{"name":"interfaceId","type":"bytes4","internalType":"bytes4"}],"outputs":[{"name":"","type":"bool","internalType":"bool"}],"stateMutability":"view"},{"type":"function","name":"upgradeCosts","inputs":[{"name":"","type":"uint256","internalType":"uint256"}],"outputs":[{"name":"","type":"uint256","internalType":"uint256"}],"stateMutability":"view"},{"type":"function","name":"upgradeParcel","inputs":[{"name":"parcelId","type":"uint256","internalType":"uint256"}],"outputs":[],"stateMutability":"nonpayable"},{"type":"event","name":"ParcelUpgraded","inputs":[{"name":"owner","type":"address","indexed":true,"internalType":"address"},{"name":"parcelId","type":"uint256","indexed":true,"internalType":"uint256"},{"name":"oldLevel","type":"uint8","indexed":false,"internalType":"uint8"},{"name":"newLevel","type":"uint8","indexed":false,"internalType":"uint8"},{"name":"voidBurned","type":"uint256","indexed":false,"internalType":"uint256"},{"name":"timestamp","type":"uint256","indexed":false,"internalType":"uint256"}],"anonymous":false},{"type":"event","name":"RoleAdminChanged","inputs":[{"name":"role","type":"bytes32","indexed":true,"internalType":"bytes32"},{"name":"previousAdminRole","type":"bytes32","indexed":true,"internalType":"bytes32"},{"name":"newAdminRole","type":"bytes32","indexed":true,"internalType":"bytes32"}],"anonymous":false},{"type":"event","name":"RoleGranted","inputs":[{"name":"role","type":"bytes32","indexed":true,"internalType":"bytes32"},{"name":"account","type":"address","indexed":true,"internalType":"address"},{"name":"sender","type":"address","indexed":true,"internalType":"address"}],"anonymous":false},{"type":"event","name":"RoleRevoked","inputs":[{"name":"role","type":"bytes32","indexed":true,"internalType":"bytes32"},{"name":"account","type":"address","indexed":true,"internalType":"address"},{"name":"sender","type":"address","indexed":true,"internalType":"address"}],"anonymous":false},{"type":"event","name":"UpgradeCostUpdated","inputs":[{"name":"level","type":"uint8","indexed":true,"internalType":"uint8"},{"name":"oldCost","type":"uint256","indexed":false,"internalType":"uint256"},{"name":"newCost","type":"uint256","indexed":false,"internalType":"uint256"},{"name":"timestamp","type":"uint256","indexed":false,"internalType":"uint256"}],"anonymous":false}],"bytecode":{"object":"0x60a0346101d057601f6113ff38819003918201601f1916830192916001600160401b038411838510176101d457808392604095865283396020928391810103126101d057516001600160a01b038116908190036101d057801561018d576080525f80525f8152815f20335f52815260ff825f20541615610158575b7fc7ce42f510d4c363ed19e06a1d054ecb889d3193dba883a0bf92c8fcd09ab8d890815f525f8152825f20335f52815260ff835f20541615610120575b825f600255690a968163f0a57b400000600355691fc3842bd1f071c000006004556954b40b1f852bda00000060055569d3c21bcecceda10000006006556a0211654585005212800000600755516111f690816101e982396080518181816102f501526107e70152f35b815f525f8152825f2090335f5252815f20600160ff19825416179055339033905f805160206113df8339815191525f80a45f806100b7565b5f80525f8152815f20335f528152815f20600160ff1982541617905533335f5f805160206113df8339815191528180a461007a565b50606491519062461bcd60e51b82526004820152601c60248201527f496e76616c6964206275726e207574696c6974792061646472657373000000006044820152fd5b5f80fd5b634e487b7160e01b5f52604160045260245ffdfe6080604081815260049081361015610015575f80fd5b5f925f3560e01c90816301ffc9a714610a69575080630b5fbf4f146109ff57806315c0c2af14610777578063248a9ca31461074d5780632f2ff15d146106a657806336568abe1461061457806336a2e1c4146103ae5780634b2560ae146105e85780634d0d717f1461053f578063657f47ce1461042e5780637a361918146103f35780637f023d51146103ae5780638b1069721461036757806391d14854146103245780639f5002bf146102e0578063a0a6e0b6146101b6578063a217fddf1461019b578063aa8a93a4146101315763d547741f146100f2575f80fd5b3461012d578060031936011261012d5761012a91356101256001610114610acb565b938387528660205286200154610f6b565b61106a565b80f35b8280fd5b8382346101975760603660031901126101975761014c610ae1565b906044359081151582036101935761012a92610166610d95565b60018060a01b031684526008602052808420602435855260205283209060ff801983541691151516179055565b8380fd5b5080fd5b83823461019757816003193601126101975751908152602090f35b50903461012d578160031936011261012d5767ffffffffffffffff9080358281116102dc576101e89036908301610af7565b9190926024906024359081116102d8576102059036908401610af7565b919093610210610d95565b61021b838214610bfc565b875b818110610228578880f35b610233818389610c40565b3560ff8116908181036102d45761024b83878a610c40565b35906001831015806102c9575b61026190610b28565b60068110156102b7576002018054908290558a51908152602081019190915242604082015260019291907f326ffef648f01133eb8670e72e58d5dcb08e8ef655c821ee20b5eec9e0a5497090606090a20161021d565b634e487b7160e01b8c5260328852858cfd5b506005831115610258565b8a80fd5b8680fd5b8480fd5b838234610197578160031936011261019757517f00000000000000000000000000000000000000000000000000000000000000006001600160a01b03168152602090f35b50903461012d578160031936011261012d5781602093610342610acb565b92358152808552209060018060a01b03165f52825260ff815f20541690519015158152f35b83823461019757806003193601126101975760209160ff9082906001600160a01b03610391610ae1565b168152600885528181206024358252855220541690519015158152f35b83823461019757806003193601126101975760209160ff9082906001600160a01b036103d8610ae1565b16815260018552818120602435825285522054169051908152f35b838234610197578160031936011261019757602090517fc7ce42f510d4c363ed19e06a1d054ecb889d3193dba883a0bf92c8fcd09ab8d88152f35b503461012d57606036600319011261012d5767ffffffffffffffff9082358281116102dc576104609036908501610af7565b9390926024358181116102d85761047a9036908401610af7565b91909260443591821161053b5761049391369101610af7565b61049e969196610d95565b82821480610532575b6104b090610bfc565b875b8281106104bd578880f35b6104c881838a610c40565b3590811515820361052e576104de81858a610c40565b356001600160a01b038116908190036102d457600192610528918c52602060088152898d20908d610510868b8d610c40565b35905252888c209060ff801983541691151516179055565b016104b2565b8980fd5b508281146104a7565b8780fd5b5082903461019757806003193601126101975761055a610abb565b90602435610566610d95565b60ff8316926001841015806105dd575b61057f90610b28565b60068110156105ca57600201805490829055915191825260208201524260408201527f326ffef648f01133eb8670e72e58d5dcb08e8ef655c821ee20b5eec9e0a5497090606090a280f35b634e487b7160e01b855260328652602485fd5b506005841115610576565b50903461012d57602036600319011261012d5735600681101561012d5760209250600201549051908152f35b5091903461019757826003193601126101975761062f610acb565b90336001600160a01b0383160361064b579061012a913561106a565b608490602085519162461bcd60e51b8352820152602f60248201527f416363657373436f6e74726f6c3a2063616e206f6e6c792072656e6f756e636560448201526e103937b632b9903337b91039b2b63360891b6064820152fd5b50903461012d578160031936011261012d5735906106c2610acb565b90828452836020526106d960018286200154610f6b565b828452836020528084209160018060a01b031691825f5260205260ff815f20541615610703578380f35b82845283602052808420825f526020525f20600160ff1982541617905533917f2f8788117e7eff1d82e926ec794901d17c78024a50270940304540a733656f0d8480a45f80808380f35b50903461012d57602036600319011261012d57816020936001923581528085522001549051908152f35b50903461096c5760208060031936011261096c57813592335f5260088252805f20845f52825260ff815f205416156109cb57335f5260018252805f20845f52825260ff815f20541692600584101561099657600184019260ff8411610983576006841015610970576003850154937f00000000000000000000000000000000000000000000000000000000000000006001600160a01b03169260ff6108246001600160801b038a16610c91565b92169361088b602961083587610c91565b9488519586916650415243454c5f60c81b8984015261085d815180928b602787019101610b64565b82016117d360f21b602782015261087c825180938b8785019101610b64565b01036009810186520184610bb5565b803b1561096c576108c95f93918492885195868094819363d93550a160e01b83528d8984015260016024840152606060448401526064830190610bd7565b03925af1801561096257610930575b50503387526001815282872086885281528287208260ff1982541617905582519485528401528201524260608201527fd8558955905e8d618e826fd7a9af6290d8c863e65a6728091cb7f4b427831c6c60803392a380f35b9091975067ffffffffffffffff821161094f575082525f955f806108d8565b604190634e487b7160e01b5f525260245ffd5b85513d5f823e3d90fd5b5f80fd5b603282634e487b7160e01b5f525260245ffd5b601182634e487b7160e01b5f525260245ffd5b82606492519162461bcd60e51b8352820152601160248201527013585e081b195d995b081c995858da1959607a1b6044820152fd5b5162461bcd60e51b815291820152601060248201526f2737ba103830b931b2b61037bbb732b960811b604482015260649150fd5b503461096c57602036600319011261096c57610a19610abb565b610a3260ff821660018110159081610a5d575b50610b28565b6006811015610a4a5760209250600201549051908152f35b603283634e487b7160e01b5f525260245ffd5b60059150111585610a2c565b833461096c57602036600319011261096c57359063ffffffff60e01b821680920361096c57602091637965db0b60e01b8114908115610aaa575b5015158152f35b6301ffc9a760e01b14905083610aa3565b6004359060ff8216820361096c57565b602435906001600160a01b038216820361096c57565b600435906001600160a01b038216820361096c57565b9181601f8401121561096c5782359167ffffffffffffffff831161096c576020808501948460051b01011161096c57565b15610b2f57565b60405162461bcd60e51b815260206004820152600d60248201526c125b9d985b1a59081b195d995b609a1b6044820152606490fd5b5f5b838110610b755750505f910152565b8181015183820152602001610b66565b6080810190811067ffffffffffffffff821117610ba157604052565b634e487b7160e01b5f52604160045260245ffd5b90601f8019910116810190811067ffffffffffffffff821117610ba157604052565b90602091610bf081518092818552858086019101610b64565b601f01601f1916010190565b15610c0357565b60405162461bcd60e51b8152602060048201526015602482015274082e4e4c2f240d8cadccee8d040dad2e6dac2e8c6d605b1b6044820152606490fd5b9190811015610c505760051b0190565b634e487b7160e01b5f52603260045260245ffd5b67ffffffffffffffff8111610ba157601f01601f191660200190565b908151811015610c50570160200190565b6001600160801b039081811615610d65575f9282825b16938415610cda578316838114610cc657600a60018592019504610ca7565b634e487b7160e01b5f52601160045260245ffd5b935091908180851694610cec86610c64565b95610cfa6040519788610bb5565b808752610d09601f1991610c64565b01366020880137915b16908115610d605782165f1901828111610cc6578091600a90848282061660300192858411610cc657859360f81b6001600160f81b0319165f1a90610d5990851689610c80565b5304610d12565b505050565b50506040516040810181811067ffffffffffffffff821117610ba15760405260018152600360fc1b602082015290565b335f9081527f3e9b46f7268a182ecbd17766c317b48d689dfc48a4f2b02569c25cbdf90918fc6020908152604091829020547fc7ce42f510d4c363ed19e06a1d054ecb889d3193dba883a0bf92c8fcd09ab8d89060ff1615610df657505050565b610dff336110db565b908351610e0b81610b85565b60428152838101916060368437815115610c505760308353815160019060011015610c5057607860218401536041905b808211610f28575050610ee6576048610ee2938693610ec693610eb7985198899376020b1b1b2b9b9a1b7b73a3937b61d1030b1b1b7bab73a1604d1b8a860152610e8e815180928c603789019101610b64565b8401917001034b99036b4b9b9b4b733903937b6329607d1b603784015251809386840190610b64565b01036028810187520185610bb5565b5192839262461bcd60e51b845260048401526024830190610bd7565b0390fd5b60648486519062461bcd60e51b825280600483015260248201527f537472696e67733a20686578206c656e67746820696e73756666696369656e746044820152fd5b9091600f81166010811015610c50576f181899199a1a9b1b9c1cb0b131b232b360811b901a610f578486610c80565b5360041c918015610cc6575f190190610e3b565b805f5260205f8152604091825f20335f52825260ff835f20541615610f8f57505050565b610f98336110db565b908351610fa481610b85565b60428152838101916060368437815115610c505760308353815160019060011015610c5057607860218401536041905b808211611027575050610ee6576048610ee2938693610ec693610eb7985198899376020b1b1b2b9b9a1b7b73a3937b61d1030b1b1b7bab73a1604d1b8a860152610e8e815180928c603789019101610b64565b9091600f81166010811015610c50576f181899199a1a9b1b9c1cb0b131b232b360811b901a6110568486610c80565b5360041c918015610cc6575f190190610fd4565b90815f525f60205260405f209060018060a01b031690815f5260205260ff60405f205416611096575050565b815f525f60205260405f20815f5260205260405f2060ff19815416905533917ff6391f5c32d9c69d2a47ea670b442974b53935d1edc7fd64eb21e047a839171b5f80a4565b604051906060820182811067ffffffffffffffff821117610ba157604052602a8252602082016040368237825115610c505760309053815160019060011015610c5057607860218401536029905b80821161117d5750506111395790565b606460405162461bcd60e51b815260206004820152602060248201527f537472696e67733a20686578206c656e67746820696e73756666696369656e746044820152fd5b9091600f81166010811015610c50576f181899199a1a9b1b9c1cb0b131b232b360811b901a6111ac8486610c80565b5360041c918015610cc6575f19019061112956fea264697066735822122037a9a81b86d1a4d507b72c61c5f9b0792f0f9339f6c68178facb76e9c9e3fe8664736f6c634300081800332f8788117e7eff1d82e926ec794901d17c78024a50270940304540a733656f0d","linkReferences":{}},"methodIdentifiers":{"DEFAULT_ADMIN_ROLE()":"a217fddf","LAND_MANAGER_ROLE()":"7a361918","batchSetCosts(uint8[],uint256[])":"a0a6e0b6","batchSetOwnership(address[],uint256[],bool[])":"657f47ce","burnUtility()":"9f5002bf","getRoleAdmin(bytes32)":"248a9ca3","getUpgradeCost(uint8)":"0b5fbf4f","getUpgradeLevel(address,uint256)":"7f023d51","grantRole(bytes32,address)":"2f2ff15d","hasRole(bytes32,address)":"91d14854","ownsParcel(address,uint256)":"8b106972","parcelUpgradeLevel(address,uint256)":"36a2e1c4","renounceRole(bytes32,address)":"36568abe","revokeRole(bytes32,address)":"d547741f","setParcelOwnership(address,uint256,bool)":"aa8a93a4","setUpgradeCost(uint8,uint256)":"4d0d717f","supportsInterface(bytes4)":"01ffc9a7","upgradeCosts(uint256)":"4b2560ae","upgradeParcel(uint256)":"15c0c2af"},"id":12}