{"abi":[{"type":"constructor","inputs":[{"name":"_burnUtility","type":"address","internalType":"address"}],"stateMutability":"nonpayable"},{"type":"function","name":"DEFAULT_ADMIN_ROLE","inputs":[],"outputs":[{"name":"","type":"bytes32","internalType":"bytes32"}],"stateMutability":"view"},{"type":"function","name":"MINIAPP_MANAGER_ROLE","inputs":[],"outputs":[{"name":"","type":"bytes32","internalType":"bytes32"}],"stateMutability":"view"},{"type":"function","name":"addFeature","inputs":[{"name":"miniAppId","type":"string","internalType":"string"},{"name":"featureId","type":"string","internalType":"string"},{"name":"price","type":"uint256","internalType":"uint256"}],"outputs":[],"stateMutability":"nonpayable"},{"type":"function","name":"batchSetPrices","inputs":[{"name":"miniAppIds","type":"string[]","internalType":"string[]"},{"name":"featureIds","type":"string[]","internalType":"string[]"},{"name":"prices","type":"uint256[]","internalType":"uint256[]"}],"outputs":[],"stateMutability":"nonpayable"},{"type":"function","name":"burnUtility","inputs":[],"outputs":[{"name":"","type":"address","internalType":"contract VoidBurnUtility"}],"stateMutability":"view"},{"type":"function","name":"featurePrices","inputs":[{"name":"","type":"string","internalType":"string"},{"name":"","type":"string","internalType":"string"}],"outputs":[{"name":"","type":"uint256","internalType":"uint256"}],"stateMutability":"view"},{"type":"function","name":"featuresByMiniApp","inputs":[{"name":"","type":"string","internalType":"string"},{"name":"","type":"uint256","internalType":"uint256"}],"outputs":[{"name":"","type":"string","internalType":"string"}],"stateMutability":"view"},{"type":"function","name":"getFeaturePrice","inputs":[{"name":"miniAppId","type":"string","internalType":"string"},{"name":"featureId","type":"string","internalType":"string"}],"outputs":[{"name":"","type":"uint256","internalType":"uint256"}],"stateMutability":"view"},{"type":"function","name":"getFeatures","inputs":[{"name":"miniAppId","type":"string","internalType":"string"}],"outputs":[{"name":"","type":"string[]","internalType":"string[]"}],"stateMutability":"view"},{"type":"function","name":"getRoleAdmin","inputs":[{"name":"role","type":"bytes32","internalType":"bytes32"}],"outputs":[{"name":"","type":"bytes32","internalType":"bytes32"}],"stateMutability":"view"},{"type":"function","name":"grantRole","inputs":[{"name":"role","type":"bytes32","internalType":"bytes32"},{"name":"account","type":"address","internalType":"address"}],"outputs":[],"stateMutability":"nonpayable"},{"type":"function","name":"hasAccess","inputs":[{"name":"user","type":"address","internalType":"address"},{"name":"miniAppId","type":"string","internalType":"string"},{"name":"featureId","type":"string","internalType":"string"}],"outputs":[{"name":"","type":"bool","internalType":"bool"}],"stateMutability":"view"},{"type":"function","name":"hasFeatureAccess","inputs":[{"name":"","type":"address","internalType":"address"},{"name":"","type":"string","internalType":"string"},{"name":"","type":"string","internalType":"string"}],"outputs":[{"name":"","type":"bool","internalType":"bool"}],"stateMutability":"view"},{"type":"function","name":"hasRole","inputs":[{"name":"role","type":"bytes32","internalType":"bytes32"},{"name":"account","type":"address","internalType":"address"}],"outputs":[{"name":"","type":"bool","internalType":"bool"}],"stateMutability":"view"},{"type":"function","name":"miniAppRegistered","inputs":[{"name":"","type":"string","internalType":"string"}],"outputs":[{"name":"","type":"bool","internalType":"bool"}],"stateMutability":"view"},{"type":"function","name":"registerMiniApp","inputs":[{"name":"miniAppId","type":"string","internalType":"string"},{"name":"features","type":"string[]","internalType":"string[]"},{"name":"prices","type":"uint256[]","internalType":"uint256[]"}],"outputs":[],"stateMutability":"nonpayable"},{"type":"function","name":"renounceRole","inputs":[{"name":"role","type":"bytes32","internalType":"bytes32"},{"name":"account","type":"address","internalType":"address"}],"outputs":[],"stateMutability":"nonpayable"},{"type":"function","name":"revokeRole","inputs":[{"name":"role","type":"bytes32","internalType":"bytes32"},{"name":"account","type":"address","internalType":"address"}],"outputs":[],"stateMutability":"nonpayable"},{"type":"function","name":"setFeaturePrice","inputs":[{"name":"miniAppId","type":"string","internalType":"string"},{"name":"featureId","type":"string","internalType":"string"},{"name":"price","type":"uint256","internalType":"uint256"}],"outputs":[],"stateMutability":"nonpayable"},{"type":"function","name":"supportsInterface","inputs":[{"name":"interfaceId","type":"bytes4","internalType":"bytes4"}],"outputs":[{"name":"","type":"bool","internalType":"bool"}],"stateMutability":"view"},{"type":"function","name":"unlockFeature","inputs":[{"name":"miniAppId","type":"string","internalType":"string"},{"name":"featureId","type":"string","internalType":"string"}],"outputs":[],"stateMutability":"nonpayable"},{"type":"event","name":"FeaturePriceUpdated","inputs":[{"name":"miniAppId","type":"string","indexed":true,"internalType":"string"},{"name":"featureId","type":"string","indexed":false,"internalType":"string"},{"name":"oldPrice","type":"uint256","indexed":false,"internalType":"uint256"},{"name":"newPrice","type":"uint256","indexed":false,"internalType":"uint256"},{"name":"timestamp","type":"uint256","indexed":false,"internalType":"uint256"}],"anonymous":false},{"type":"event","name":"FeatureUnlocked","inputs":[{"name":"user","type":"address","indexed":true,"internalType":"address"},{"name":"miniAppId","type":"string","indexed":true,"internalType":"string"},{"name":"featureId","type":"string","indexed":false,"internalType":"string"},{"name":"voidBurned","type":"uint256","indexed":false,"internalType":"uint256"},{"name":"timestamp","type":"uint256","indexed":false,"internalType":"uint256"}],"anonymous":false},{"type":"event","name":"MiniAppRegistered","inputs":[{"name":"miniAppId","type":"string","indexed":true,"internalType":"string"},{"name":"features","type":"string[]","indexed":false,"internalType":"string[]"},{"name":"timestamp","type":"uint256","indexed":false,"internalType":"uint256"}],"anonymous":false},{"type":"event","name":"RoleAdminChanged","inputs":[{"name":"role","type":"bytes32","indexed":true,"internalType":"bytes32"},{"name":"previousAdminRole","type":"bytes32","indexed":true,"internalType":"bytes32"},{"name":"newAdminRole","type":"bytes32","indexed":true,"internalType":"bytes32"}],"anonymous":false},{"type":"event","name":"RoleGranted","inputs":[{"name":"role","type":"bytes32","indexed":true,"internalType":"bytes32"},{"name":"account","type":"address","indexed":true,"internalType":"address"},{"name":"sender","type":"address","indexed":true,"internalType":"address"}],"anonymous":false},{"type":"event","name":"RoleRevoked","inputs":[{"name":"role","type":"bytes32","indexed":true,"internalType":"bytes32"},{"name":"account","type":"address","indexed":true,"internalType":"address"},{"name":"sender","type":"address","indexed":true,"internalType":"address"}],"anonymous":false}],"bytecode":{"object":"0x60a0346200019257601f62001ba938819003918201601f1916830192916001600160401b038411838510176200019657808392604095865283396020928391810103126200019257516001600160a01b03811690819003620001925780156200014f576080525f80525f8152815f20335f52815260ff825f2054161562000118575b7f71fe64a0acec2b4b997592f2657699078ba53a77513168ded13a65dd328c3d1e90815f525f8152825f20335f52815260ff835f20541615620000de575b82516119de9081620001ab82396080518181816106bb0152610bfa0152f35b815f525f8152825f2090335f5252815f20600160ff19825416179055339033905f8051602062001b898339815191525f80a45f80620000bf565b5f80525f8152815f20335f528152815f20600160ff1982541617905533335f5f8051602062001b898339815191528180a462000081565b50606491519062461bcd60e51b82526004820152601c60248201527f496e76616c6964206275726e207574696c6974792061646472657373000000006044820152fd5b5f80fd5b634e487b7160e01b5f52604160045260245ffdfe6080604090808252600480361015610015575f80fd5b5f915f3560e01c90816301ffc9a714610f665750806306dbefc014610f2c578063248a9ca314610f0257806325d3922514610e8e5780632f2ff15d14610deb57806331f40f3914610b6057806336568abe14610ad0578063453e7a21146108815780637c42ecbc14610846578063891749c9146107ba5780638e5f8dcb1461072e57806391d14854146106ea5780639f5002bf146106a6578063a217fddf1461068b578063a9c09bd0146105e7578063b1476c061461050d578063b306256c14610341578063cec9d881146102c2578063d547741f14610285578063ed7d32e6146102205763f270531f14610108575f80fd5b3461021c57602080600319360112610218576001600160401b039082358281116102145761013a8291369086016110de565b919082885193849283378101868152030190209283549283116102015750929084519061016c858260051b0183610fe7565b8082528482018094845285842084915b8383106101dd57505050508451938085019181865251809252858501958260051b8601019392955b8287106101b15785850386f35b9091929382806101cd600193603f198a82030186528851611288565b96019201960195929190926101a4565b60018881926101ef859b98999b6111e6565b8152019201920191909694939661017c565b634e487b7160e01b855260419052602484fd5b8480fd5b8280fd5b5080fd5b50919034610282576020366003190112610282578235906001600160401b038211610282575061026d602061025b819560ff9436910161104d565b8185519382858094519384920161106b565b81016003815203019020541690519015158152f35b80fd5b5082346102185780600319360112610218576102bf91356102ba60016102a96110b2565b938387528660205286200154611743565b611842565b80f35b50829034610218576103279161033d9160206102dd366112ad565b98818385979695949993986102f0611559565b61030f60ff8651888a82378a818a810160038152030190205416611314565b8785518092888a833788820190815203019020611405565b51938492833781016002815203019020916112fb565b5580f35b508234610218576060916060600319360112610509576001600160401b03908035828111610505576103769036908301611155565b602495919535848111610501576103909036908501611155565b9490936044359182116104fd576103a991369101611155565b9390916103b4611559565b858114806104f4575b6103c690611380565b885b8181106103d3578980f35b6103de81838b6113c4565b36906103e992611008565b886103f5838a876113c4565b369061040092611008565b61040b848a89611549565b359282519080519060209283818184019461042781838861106b565b810160038152030190205460ff1661043e90611314565b85855184835161044f81848861106b565b820191818160029485815203019020610468908861108c565b5497518092855161047a81848a61106b565b82019081520301902061048d908661108c565b558d51809281925180926104a09261106b565b8101039020938c51938493608080865285016104bb91611288565b928401528c8301524289830152037f19cd1a57fcf046495de22c3903ca476c8c8e8a937d575cce4dee8631d104200c91a26001016103c8565b508585146103bd565b8880fd5b8780fd5b8580fd5b8380fd5b82843461021c577f19cd1a57fcf046495de22c3903ca476c8c8e8a937d575cce4dee8631d104200c61053e366112ad565b909261054b949294611559565b61056b60ff88518386823760208185810160038152030190205416611314565b610589875182858237602081848101600281520301902085876112fb565b5492826105aa895184848237602081868101600281520301902087896112fb565b55818851928392833781015f8152039020956105d28151958695608087526080870191611360565b9260208501528301524260608301520390a280f35b5091903461028257816003193601126102825782356001600160401b03811161021c57610617903690850161104d565b6106326020602435928186519382858094519384920161106b565b8101878152030190208054821015610218579061064e91611185565b9390936106795761067583610662866111e6565b9051918291602083526020830190611288565b0390f35b634e487b7160e01b8252819052602490fd5b82843461021c578160031936011261021c5751908152602090f35b82843461021c578160031936011261021c57517f00000000000000000000000000000000000000000000000000000000000000006001600160a01b03168152602090f35b50829034610218578160031936011261021857816020936107096110b2565b92358152808552209060018060a01b03165f52825260ff815f20541690519015158152f35b508290346102185760603660031901126102185761074a6110c8565b906001600160401b03906024358281116105055761076b903690830161104d565b91604435908111610505576107af928560209761079160ff97956107a99536910161104d565b6001600160a01b03909516815260018952209061108c565b9061108c565b541690519015158152f35b50829034610218576060366003190112610218576107d66110c8565b906001600160401b0390602435828111610505576107f790369083016110de565b919092604435908111610842576107af9360ff95938761082060209a9561083c953691016110de565b6001600160a01b03909716865260018b529420939493916112fb565b916112fb565b8680fd5b82843461021c576020906108798261085d3661110b565b92828795929551938492833781016002815203019020916112fb565b549051908152f35b508234610218576060366003190112610218576001600160401b038235818111610214576108b290369085016110de565b93602435838111610842576108ca9036908301611155565b90956044358581116104fd576108e39036908501611155565b9490936108ee611559565b6108f9868514611380565b8751958383883760ff87858101600381526020998a91030190205416610a8d5788999795949951848482378781868101600381520301902094600195600160ff198254161790558b5b8b8110610a135750505050818751928392833781015f8152039020958086519680880190885252606086019460608260051b8801019581948a925b8484106109b45742888b01528b8b7f5d55dac90509ed48952df39b8688f8921d9b1b4ebbaf450b9a9e148e3fea979f8c8c038da280f35b90919293949597605f198a82030184528835601e1983360301811215610a0f578201888101919035848111610a0b578036038313610a0b576109fa8a9283928b95611360565b9a019401940192959493919061097d565b8d80fd5b8c80fd5b95868b610a818c9e999c610a7b84869d9f8f808f928f8f918f908f8f610a5e8c8f858c89809d8c610a639b610a58965193849283378d820190815203019020936113c4565b91611405565b611549565b359951938492833781016002815203019020936113c4565b906112fb565b55019a9896959a610942565b885162461bcd60e51b8152808301889052601b60248201527f4d696e692d61707020616c7265616479207265676973746572656400000000006044820152606490fd5b503461021c578260031936011261021c57610ae96110b2565b90336001600160a01b03831603610b0557906102bf9135611842565b608490602085519162461bcd60e51b8352820152602f60248201527f416363657373436f6e74726f6c3a2063616e206f6e6c792072656e6f756e636560448201526e103937b632b9903337b91039b2b63360891b6064820152fd5b508234610d6957610b703661110b565b92939182959195519481818737610b9a60ff87848101600381526020998a91030190205416611314565b335f526001865260ff610bba610bb3865f2085856112fb565b878a6112fb565b5416610da857610bdd8451838382378781858101600281520301902086896112fb565b54928315610d6d578451674d494e494150505f60c01b88820152907f00000000000000000000000000000000000000000000000000000000000000006001600160a01b031684846028850137610c586029848a8d818a840191605f60f81b602884015285830137015f83820152036009810186520184610fe7565b803b15610d6957610c955f93918492895195868094819363d93550a160e01b83528c89840152886024840152606060448401526064830190611288565b03925af18015610d5f57610d2c575b50507f9309c1838987ad9d76f369259b71127e222be988c6f914aa137b068084e39b1b94939291610d1a91338a5260018852610ced610ce6868c2084846112fb565b878b6112fb565b600160ff19825416179055818551928392833781015f815203902096835194606086526060860191611360565b9483015242908201528033930390a380f35b909198506001600160401b038211610d4c575083525f9681610d1a610ca4565b604190634e487b7160e01b5f525260245ffd5b86513d5f823e3d90fd5b5f80fd5b845162461bcd60e51b8152908101879052601560248201527446656174757265206e6f7420617661696c61626c6560581b6044820152606490fd5b835162461bcd60e51b8152808401879052601860248201527f4665617475726520616c726561647920756e6c6f636b656400000000000000006044820152606490fd5b838234610d695781600319360112610d69573590610e076110b2565b90825f525f602052610e1e6001825f200154611743565b5f83815260208181528282206001600160a01b039094168083529390528190205460ff1615610e4957005b825f525f602052805f20825f526020525f20600160ff1982541617905533917f2f8788117e7eff1d82e926ec794901d17c78024a50270940304540a733656f0d5f80a4005b508234610d695780600319360112610d69576001600160401b03918035838111610d6957610ebf903690830161104d565b602435938411610d6957610ef26020610edf61087994829736910161104d565b928186519382858094519384920161106b565b810160028152030190209061108c565b508234610d69576020366003190112610d6957602091355f525f82526001815f2001549051908152f35b8334610d69575f366003190112610d6957602090517f71fe64a0acec2b4b997592f2657699078ba53a77513168ded13a65dd328c3d1e8152f35b8234610d69576020366003190112610d6957359063ffffffff60e01b8216809203610d6957602091637965db0b60e01b8114908115610fa7575b5015158152f35b6301ffc9a760e01b14905083610fa0565b608081019081106001600160401b03821117610fd357604052565b634e487b7160e01b5f52604160045260245ffd5b90601f801991011681019081106001600160401b03821117610fd357604052565b9291926001600160401b038211610fd35760405191611031601f8201601f191660200184610fe7565b829481845281830111610d69578281602093845f960137010152565b9080601f83011215610d695781602061106893359101611008565b90565b5f5b83811061107c5750505f910152565b818101518382015260200161106d565b6020906110a692826040519483868095519384920161106b565b82019081520301902090565b602435906001600160a01b0382168203610d6957565b600435906001600160a01b0382168203610d6957565b9181601f84011215610d69578235916001600160401b038311610d695760208381860195010111610d6957565b6040600319820112610d69576001600160401b0391600435838111610d695782611137916004016110de565b93909392602435918211610d6957611151916004016110de565b9091565b9181601f84011215610d69578235916001600160401b038311610d69576020808501948460051b010111610d6957565b805482101561119a575f5260205f2001905f90565b634e487b7160e01b5f52603260045260245ffd5b90600182811c921680156111dc575b60208310146111c857565b634e487b7160e01b5f52602260045260245ffd5b91607f16916111bd565b9060405191825f82546111f8816111ae565b908184526020946001916001811690815f146112665750600114611228575b50505061122692500383610fe7565b565b5f90815285812095935091905b81831061124e57505061122693508201015f8080611217565b85548884018501529485019487945091830191611235565b9250505061122694925060ff191682840152151560051b8201015f8080611217565b906020916112a18151809281855285808601910161106b565b601f01601f1916010190565b6060600319820112610d69576001600160401b0391600435838111610d6957826112d9916004016110de565b93909392602435918211610d69576112f3916004016110de565b909160443590565b6020919283604051948593843782019081520301902090565b1561131b57565b60405162461bcd60e51b815260206004820152601760248201527f4d696e692d617070206e6f7420726567697374657265640000000000000000006044820152606490fd5b908060209392818452848401375f828201840152601f01601f1916010190565b1561138757565b60405162461bcd60e51b8152602060048201526015602482015274082e4e4c2f240d8cadccee8d040dad2e6dac2e8c6d605b1b6044820152606490fd5b919081101561119a5760051b81013590601e1981360301821215610d695701908135916001600160401b038311610d69576020018236038113610d69579190565b9091815468010000000000000000811015610fd35761142b906001938482018155611185565b939093611536576001600160401b038211610fd35761144a84546111ae565b601f81116114ee575b505f90601f831160011461148b579282939183925f94611480575b50501b915f199060031b1c1916179055565b013592505f8061146e565b601f19831691855f528360209360205f20945f905b888383106114d457505050106114bb575b505050811b019055565b01355f19600384901b60f8161c191690555f80806114b1565b8686013588559096019593840193879350908101906114a0565b845f5260205f20601f840160051c8101916020851061152c575b601f0160051c019084905b828110611521575050611453565b5f8155018490611513565b9091508190611508565b634e487b7160e01b5f525f60045260245ffd5b919081101561119a5760051b0190565b335f9081527f5aca9eec59e202afe5e578358c2db41e286327001c26c16fa9091306eb4d53586020908152604091829020547f71fe64a0acec2b4b997592f2657699078ba53a77513168ded13a65dd328c3d1e9060ff16156115ba57505050565b6115c3336118c4565b9083516115cf81610fb8565b6042815283810191606036843781511561119a576030835381516001906001101561119a57607860218401536041905b8082116116ec5750506116aa5760486116a693869361168a9361167b985198899376020b1b1b2b9b9a1b7b73a3937b61d1030b1b1b7bab73a1604d1b8a860152611652815180928c60378901910161106b565b8401917001034b99036b4b9b9b4b733903937b6329607d1b60378401525180938684019061106b565b01036028810187520185610fe7565b5192839262461bcd60e51b845260048401526024830190611288565b0390fd5b60648486519062461bcd60e51b825280600483015260248201527f537472696e67733a20686578206c656e67746820696e73756666696369656e746044820152fd5b9091600f8116601081101561119a576f181899199a1a9b1b9c1cb0b131b232b360811b901a61171b84866118b3565b5360041c91801561172f575f1901906115ff565b634e487b7160e01b5f52601160045260245ffd5b805f5260205f8152604091825f20335f52825260ff835f2054161561176757505050565b611770336118c4565b90835161177c81610fb8565b6042815283810191606036843781511561119a576030835381516001906001101561119a57607860218401536041905b8082116117ff5750506116aa5760486116a693869361168a9361167b985198899376020b1b1b2b9b9a1b7b73a3937b61d1030b1b1b7bab73a1604d1b8a860152611652815180928c60378901910161106b565b9091600f8116601081101561119a576f181899199a1a9b1b9c1cb0b131b232b360811b901a61182e84866118b3565b5360041c91801561172f575f1901906117ac565b90815f525f60205260405f209060018060a01b031690815f5260205260ff60405f20541661186e575050565b815f525f60205260405f20815f5260205260405f2060ff19815416905533917ff6391f5c32d9c69d2a47ea670b442974b53935d1edc7fd64eb21e047a839171b5f80a4565b90815181101561119a570160200190565b60405190606082018281106001600160401b03821117610fd357604052602a825260208201604036823782511561119a576030905381516001906001101561119a57607860218401536029905b8082116119655750506119215790565b606460405162461bcd60e51b815260206004820152602060248201527f537472696e67733a20686578206c656e67746820696e73756666696369656e746044820152fd5b9091600f8116601081101561119a576f181899199a1a9b1b9c1cb0b131b232b360811b901a61199484866118b3565b5360041c91801561172f575f19019061191156fea26469706673582212202af8c07744733a4e04afb309ca33c1fab70946471d998d3a924171e2da6cb95664736f6c634300081800332f8788117e7eff1d82e926ec794901d17c78024a50270940304540a733656f0d","linkReferences":{}},"methodIdentifiers":{"DEFAULT_ADMIN_ROLE()":"a217fddf","MINIAPP_MANAGER_ROLE()":"06dbefc0","addFeature(string,string,uint256)":"cec9d881","batchSetPrices(string[],string[],uint256[])":"b306256c","burnUtility()":"9f5002bf","featurePrices(string,string)":"25d39225","featuresByMiniApp(string,uint256)":"a9c09bd0","getFeaturePrice(string,string)":"7c42ecbc","getFeatures(string)":"f270531f","getRoleAdmin(bytes32)":"248a9ca3","grantRole(bytes32,address)":"2f2ff15d","hasAccess(address,string,string)":"891749c9","hasFeatureAccess(address,string,string)":"8e5f8dcb","hasRole(bytes32,address)":"91d14854","miniAppRegistered(string)":"ed7d32e6","registerMiniApp(string,string[],uint256[])":"453e7a21","renounceRole(bytes32,address)":"36568abe","revokeRole(bytes32,address)":"d547741f","setFeaturePrice(string,string,uint256)":"b1476c06","supportsInterface(bytes4)":"01ffc9a7","unlockFeature(string,string)":"31f40f39"},"id":13}