{"abi":[{"type":"constructor","inputs":[{"name":"_burnUtility","type":"address","internalType":"address"}],"stateMutability":"nonpayable"},{"type":"function","name":"DEFAULT_ADMIN_ROLE","inputs":[],"outputs":[{"name":"","type":"bytes32","internalType":"bytes32"}],"stateMutability":"view"},{"type":"function","name":"PRESTIGE_MANAGER_ROLE","inputs":[],"outputs":[{"name":"","type":"bytes32","internalType":"bytes32"}],"stateMutability":"view"},{"type":"function","name":"batchSetCosts","inputs":[{"name":"ranks","type":"uint8[]","internalType":"uint8[]"},{"name":"costs","type":"uint256[]","internalType":"uint256[]"}],"outputs":[],"stateMutability":"nonpayable"},{"type":"function","name":"burnUtility","inputs":[],"outputs":[{"name":"","type":"address","internalType":"contract VoidBurnUtility"}],"stateMutability":"view"},{"type":"function","name":"cosmeticUnlocked","inputs":[{"name":"","type":"address","internalType":"address"},{"name":"","type":"uint8","internalType":"uint8"}],"outputs":[{"name":"","type":"bool","internalType":"bool"}],"stateMutability":"view"},{"type":"function","name":"cosmeticsByRank","inputs":[{"name":"","type":"uint8","internalType":"uint8"},{"name":"","type":"uint256","internalType":"uint256"}],"outputs":[{"name":"","type":"string","internalType":"string"}],"stateMutability":"view"},{"type":"function","name":"getCosmeticsForRank","inputs":[{"name":"rank","type":"uint8","internalType":"uint8"}],"outputs":[{"name":"","type":"string[]","internalType":"string[]"}],"stateMutability":"view"},{"type":"function","name":"getPrestigeRank","inputs":[{"name":"user","type":"address","internalType":"address"}],"outputs":[{"name":"","type":"uint8","internalType":"uint8"}],"stateMutability":"view"},{"type":"function","name":"getRankCost","inputs":[{"name":"rank","type":"uint8","internalType":"uint8"}],"outputs":[{"name":"","type":"uint256","internalType":"uint256"}],"stateMutability":"view"},{"type":"function","name":"getRoleAdmin","inputs":[{"name":"role","type":"bytes32","internalType":"bytes32"}],"outputs":[{"name":"","type":"bytes32","internalType":"bytes32"}],"stateMutability":"view"},{"type":"function","name":"grantRole","inputs":[{"name":"role","type":"bytes32","internalType":"bytes32"},{"name":"account","type":"address","internalType":"address"}],"outputs":[],"stateMutability":"nonpayable"},{"type":"function","name":"hasRole","inputs":[{"name":"role","type":"bytes32","internalType":"bytes32"},{"name":"account","type":"address","internalType":"address"}],"outputs":[{"name":"","type":"bool","internalType":"bool"}],"stateMutability":"view"},{"type":"function","name":"isCosmeticUnlocked","inputs":[{"name":"user","type":"address","internalType":"address"},{"name":"rank","type":"uint8","internalType":"uint8"}],"outputs":[{"name":"","type":"bool","internalType":"bool"}],"stateMutability":"view"},{"type":"function","name":"prestigeRank","inputs":[{"name":"","type":"address","internalType":"address"}],"outputs":[{"name":"","type":"uint8","internalType":"uint8"}],"stateMutability":"view"},{"type":"function","name":"rankCosts","inputs":[{"name":"","type":"uint256","internalType":"uint256"}],"outputs":[{"name":"","type":"uint256","internalType":"uint256"}],"stateMutability":"view"},{"type":"function","name":"renounceRole","inputs":[{"name":"role","type":"bytes32","internalType":"bytes32"},{"name":"account","type":"address","internalType":"address"}],"outputs":[],"stateMutability":"nonpayable"},{"type":"function","name":"revokeRole","inputs":[{"name":"role","type":"bytes32","internalType":"bytes32"},{"name":"account","type":"address","internalType":"address"}],"outputs":[],"stateMutability":"nonpayable"},{"type":"function","name":"setCosmeticsForRank","inputs":[{"name":"rank","type":"uint8","internalType":"uint8"},{"name":"cosmetics","type":"string[]","internalType":"string[]"}],"outputs":[],"stateMutability":"nonpayable"},{"type":"function","name":"setRankCost","inputs":[{"name":"rank","type":"uint8","internalType":"uint8"},{"name":"cost","type":"uint256","internalType":"uint256"}],"outputs":[],"stateMutability":"nonpayable"},{"type":"function","name":"supportsInterface","inputs":[{"name":"interfaceId","type":"bytes4","internalType":"bytes4"}],"outputs":[{"name":"","type":"bool","internalType":"bool"}],"stateMutability":"view"},{"type":"function","name":"unlockNextRank","inputs":[],"outputs":[],"stateMutability":"nonpayable"},{"type":"event","name":"CosmeticUnlocked","inputs":[{"name":"user","type":"address","indexed":true,"internalType":"address"},{"name":"rank","type":"uint8","indexed":true,"internalType":"uint8"},{"name":"cosmeticId","type":"string","indexed":false,"internalType":"string"},{"name":"timestamp","type":"uint256","indexed":false,"internalType":"uint256"}],"anonymous":false},{"type":"event","name":"PrestigeRankAchieved","inputs":[{"name":"user","type":"address","indexed":true,"internalType":"address"},{"name":"rank","type":"uint8","indexed":true,"internalType":"uint8"},{"name":"voidBurned","type":"uint256","indexed":false,"internalType":"uint256"},{"name":"timestamp","type":"uint256","indexed":false,"internalType":"uint256"}],"anonymous":false},{"type":"event","name":"RankCostUpdated","inputs":[{"name":"rank","type":"uint8","indexed":true,"internalType":"uint8"},{"name":"oldCost","type":"uint256","indexed":false,"internalType":"uint256"},{"name":"newCost","type":"uint256","indexed":false,"internalType":"uint256"},{"name":"timestamp","type":"uint256","indexed":false,"internalType":"uint256"}],"anonymous":false},{"type":"event","name":"RoleAdminChanged","inputs":[{"name":"role","type":"bytes32","indexed":true,"internalType":"bytes32"},{"name":"previousAdminRole","type":"bytes32","indexed":true,"internalType":"bytes32"},{"name":"newAdminRole","type":"bytes32","indexed":true,"internalType":"bytes32"}],"anonymous":false},{"type":"event","name":"RoleGranted","inputs":[{"name":"role","type":"bytes32","indexed":true,"internalType":"bytes32"},{"name":"account","type":"address","indexed":true,"internalType":"address"},{"name":"sender","type":"address","indexed":true,"internalType":"address"}],"anonymous":false},{"type":"event","name":"RoleRevoked","inputs":[{"name":"role","type":"bytes32","indexed":true,"internalType":"bytes32"},{"name":"account","type":"address","indexed":true,"internalType":"address"},{"name":"sender","type":"address","indexed":true,"internalType":"address"}],"anonymous":false}],"bytecode":{"object":"0x60a034620005d657601f62001cb338819003918201601f1916830192916001600160401b03841183851017620005da5780839260409586528339602092839181010312620005d657516001600160a01b03811690819003620005d657801562000593576080525f80525f8152815f20335f52815260ff825f205416156200055c575b7f8681da52707a4f66720c32fa41aded415317b1303bde52a67c818b3eae9e7475805f525f8252825f20335f52825260ff835f2054161562000523575b505f60025569054b40b1f852bda00000600355600490690fe1c215e8f838e000008255692a5a058fc295ed0000006005556969e10de76676d08000006006556a0108b2a2c28029094000006007556a027b46536c66c8e30000006008556a05ca4ec2a79a7f670000006009556a0c685fa11e01ec6f000000600a556a18d0bf423c03d8de000000600b556a52b7d2dcc80cd2e4000000600c556001805f52600e808352845f209283546801000000000000000094858210156200051057906200018c918582018155620005ee565b620004fe57620001a8620001a1825462000618565b8262000653565b60186b42726f6e7a6520426164676560a01b01905560025f52818152855f2080549085821015620005105790620001e4918582018155620005ee565b620004fe57620001f9620001a1825462000618565b60186b53696c76657220426164676560a01b01905560035f52818152855f208054908582101562000510579062000235918582018155620005ee565b620004fe576200024a620001a1825462000618565b7f476f6c642042616467650000000000000000000000000000000000000000001490555f8581528282528690208054908582101562000510579062000294918582018155620005ee565b620004fe57620002a9620001a1825462000618565b601c6d506c6174696e756d20426164676560901b01905560055f52818152855f2080549085821015620005105790620002e7918582018155620005ee565b620004fe57620002fc620001a1825462000618565b601a6c4469616d6f6e6420426164676560981b01905560065f52818152855f208054908582101562000510579062000339918582018155620005ee565b620004fe576200034e620001a1825462000618565b60186b4d617374657220426164676560a01b01905560075f52818152855f20805490858210156200051057906200038a918582018155620005ee565b620004fe576200039f620001a1825462000618565b6022704772616e646d617374657220426164676560781b01905560085f52818152855f2080549085821015620005105790620003e0918582018155620005ee565b620004fe57620003f5620001a1825462000618565b60186b4c6567656e6420426164676560a01b01905560095f52818152855f208054908582101562000510579062000431918582018155620005ee565b620004fe5762000446620001a1825462000618565b60186b4d797468696320426164676560a01b019055600a5f5252835f2090815492831015620004eb57820181556200047f9190620005ee565b919091620004d9575062000498620001a1825462000618565b7f457465726e616c2042616467650000000000000000000000000000000000001a90555161160990816200068a82396080518181816104e1015261055a0152f35b5f90634e487b7160e01b82525260245ffd5b604184634e487b7160e01b5f525260245ffd5b5f86634e487b7160e01b82525260245ffd5b604187634e487b7160e01b5f525260245ffd5b805f525f8252825f20335f528252825f20600160ff19825416179055339033905f8051602062001c938339815191525f80a45f620000be565b5f80525f8152815f20335f528152815f20600160ff1982541617905533335f5f8051602062001c938339815191528180a462000081565b50606491519062461bcd60e51b82526004820152601c60248201527f496e76616c6964206275726e207574696c6974792061646472657373000000006044820152fd5b5f80fd5b634e487b7160e01b5f52604160045260245ffd5b805482101562000604575f5260205f2001905f90565b634e487b7160e01b5f52603260045260245ffd5b90600182811c9216801562000648575b60208310146200063457565b634e487b7160e01b5f52602260045260245ffd5b91607f169162000628565b601f821162000660575050565b5f52601f60205f20910160051c8101905b8181106200067d575050565b5f81556001016200067156fe6080806040526004361015610012575f80fd5b5f905f3560e01c90816301ffc9a714610ded575080632098437914610d49578063248a9ca314610d1d5780632f2ff15d14610c7857806336568abe14610be45780633678a45a14610b8e578063614b147e146108ff57806370f04344146108865780638ac6a9fc1461085a57806391d148541461081257806397f56d6e146105105780639f5002bf146104cb578063a0a6e0b614610358578063a217fddf1461033c578063a88debc9146102c4578063b041eb4414610231578063beb7f2b314610301578063c597f0e3146102c4578063d547741f14610284578063d627a4a8146102315763fba7a19314610105575f80fd5b3461022e576020908160031936011261022e5760ff610122610e40565b1691600192600181101580610223575b61013b90611030565b8252600e8152604082209081549067ffffffffffffffff821161020f57919284916040519061016f858260051b0183610f26565b8082528482018096845285842084915b8383106101e457505050506040519380850191818652518092526040850160408360051b8701019693905b8382106101b75786880387f35b909192939483806101d3839a603f198b8203018652895161100b565b9997019594939190910191016101aa565b90868089819b9995946101fa859c999a9c610f48565b8152019201920192509795979694939661017f565b634e487b7160e01b84526041600452602484fd5b50600a811115610132565b80fd5b503461022e57604036600319011261022e5760ff604061024f610e76565b92610258610e50565b9360018060a01b03168152600d6020522091165f52602052602060ff60405f2054166040519015158152f35b503461022e57604036600319011261022e576102c16004356102a4610e60565b90808452836020526102bc6001604086200154611267565b611366565b80f35b503461022e57602036600319011261022e5760209060ff906040906001600160a01b036102ef610e76565b16815260018452205416604051908152f35b503461022e578060031936011261022e5760206040517f8681da52707a4f66720c32fa41aded415317b1303bde52a67c818b3eae9e74758152f35b503461022e578060031936011261022e57602090604051908152f35b503461022e57604036600319011261022e5767ffffffffffffffff6004358181116104c75761038b903690600401610e8c565b90916024906024359081116104c3576103a8903690600401610e8c565b9190926103b3611091565b82810361048657855b8181106103c7578680f35b6103d2818388611081565b3560ff811690818103610482576103ea838789611081565b3590600183101580610477575b61040090611030565b600b8110156104645760019392917fad141225025227b6d6df151a8c5470f53caf7c2a336ba27ffc88c10cb12b1c769160020190808254925561045b6040519283924291846040919493926060820195825260208201520152565b0390a2016103bc565b634e487b7160e01b8a526032600452858afd5b50600a8311156103f7565b8880fd5b60405162461bcd60e51b8152602060048201526015602482015274082e4e4c2f240d8cadccee8d040dad2e6dac2e8c6d605b1b6044820152606490fd5b8480fd5b8280fd5b503461022e578060031936011261022e576040517f00000000000000000000000000000000000000000000000000000000000000006001600160a01b03168152602090f35b50346107ae575f3660031901126107ae57335f5260019060209180835260ff60405f205416600a8110156107da578181019060ff82116107c657600b8210156107b25760030154907f00000000000000000000000000000000000000000000000000000000000000006001600160a01b031661058b82611404565b906105ce602e60405180946d50524553544947455f52414e4b5f60901b8b8301526105be815180928d8686019101610fea565b810103600e810185520183610f26565b803b156107ae5761060e5f9291839260405194858094819363d93550a160e01b83528a60048401526003602484015260606044840152606483019061100b565b03925af180156107a357610772575b5033845282855260ff604085209116809260ff1992828482541617905560405190815242878201527fe43145c5ba3c7fbda4a215054973fcae6958aa83e8095b815428212dec91f1a160403392a3338452600d855260408420825f5285528260405f2091825416179055808352600e84526040832093845467ffffffffffffffff811161075e576005604051916106b9848260051b0184610f26565b80835296865282862096868484015b828210610743575050508585969750945b6106e1578680f35b815185101561073f57858585858398851b860101517fd5aba9a7ac8e5d70a4ae64b8f23c3d8764779d9b187dcd00a6f29e39384e4bbb61072c6040519260408452604084019061100b565b9142898201528033930390a301946106d9565b8680f35b878681926107508d610f48565b8152019a01910190986106c8565b634e487b7160e01b85526041600452602485fd5b90935067ffffffffffffffff811161078f576040525f925f61061d565b634e487b7160e01b5f52604160045260245ffd5b6040513d5f823e3d90fd5b5f80fd5b634e487b7160e01b5f52603260045260245ffd5b634e487b7160e01b5f52601160045260245ffd5b60405162461bcd60e51b815260048101859052601060248201526f13585e081c985b9ac81c995858da195960821b6044820152606490fd5b346107ae5760403660031901126107ae5761082b610e60565b6004355f525f60205260405f209060018060a01b03165f52602052602060ff60405f2054166040519015158152f35b346107ae5760203660031901126107ae57600435600b8110156107ae5760209060020154604051908152f35b346107ae5760403660031901126107ae5761089f610e40565b60ff60243591165f52600e60205260405f209081548110156107ae576108c491610ebd565b6108ec576108d46108e891610f48565b60405191829160208352602083019061100b565b0390f35b634e487b7160e01b5f525f60045260245ffd5b346107ae5760403660031901126107ae57610918610e40565b60243567ffffffffffffffff81116107ae57610938903690600401610e8c565b90610941611091565b6001928360ff8216101580610b80575b61095a90611030565b60ff81165f52600e60205260405f208054905f815581610b11575b50505f5b83811061098257005b60ff82165f52600e60205260405f209060059181831b85013590601e19863603018212156107ae5767ffffffffffffffff82870135116107ae57818601353603602083880101136107ae5780546801000000000000000081101561078f576109ee918982018155610ebd565b9190916108ec578793610a018354610ed2565b9087601f92838111610ad3575b5050505f908288013511600114610a58575f9082880135610a48575b5081870135851b915f199088013560031b1c19161790555b01610979565b6020915082880101013589610a2a565b908491835f5260205f20905f5b8984810135601f19168210610ab7578401358a850135601f1916109050610a96575b5050860135811b019055610a42565b60205f1960f8858c013560031b161c1991848b010101351690558980610a87565b6020908501830181013584558895909301929182019101610a65565b610b0092865f528460205f2092602088838188013501851c860196013510610b08575b01901c019061106b565b898781610a0e565b93508293610af6565b5f528460205f20918201915b828110610b2a5750610975565b610b348154610ed2565b80610b43575b50018590610b1d565b601f90818111600114610b5c5750505f81555b87610b3a565b610b775f9284845260208420920160051c820185830161106b565b81835555610b56565b50600a60ff82161115610951565b346107ae5760203660031901126107ae57610ba7610e40565b610bc060ff821660018110159081610bd8575b50611030565b600b8110156107b25760209060020154604051908152f35b600a9150111583610bba565b346107ae5760403660031901126107ae57610bfd610e60565b336001600160a01b03821603610c1b57610c1990600435611366565b005b60405162461bcd60e51b815260206004820152602f60248201527f416363657373436f6e74726f6c3a2063616e206f6e6c792072656e6f756e636560448201526e103937b632b9903337b91039b2b63360891b6064820152608490fd5b346107ae5760403660031901126107ae57600435610c94610e60565b815f525f602052610cab600160405f200154611267565b815f525f60205260405f209060018060a01b031690815f5260205260ff60405f20541615610cd557005b815f525f60205260405f20815f5260205260405f20600160ff1982541617905533917f2f8788117e7eff1d82e926ec794901d17c78024a50270940304540a733656f0d5f80a4005b346107ae5760203660031901126107ae576004355f525f6020526020600160405f200154604051908152f35b346107ae5760403660031901126107ae57610d62610e40565b60243590610d6e611091565b60ff811691600183101580610de2575b610d8790611030565b600b8210156107b2577fad141225025227b6d6df151a8c5470f53caf7c2a336ba27ffc88c10cb12b1c7691600201908082549255610ddd6040519283924291846040919493926060820195825260208201520152565b0390a2005b50600a831115610d7e565b346107ae5760203660031901126107ae576004359063ffffffff60e01b82168092036107ae57602091637965db0b60e01b8114908115610e2f575b5015158152f35b6301ffc9a760e01b14905083610e28565b6004359060ff821682036107ae57565b6024359060ff821682036107ae57565b602435906001600160a01b03821682036107ae57565b600435906001600160a01b03821682036107ae57565b9181601f840112156107ae5782359167ffffffffffffffff83116107ae576020808501948460051b0101116107ae57565b80548210156107b2575f5260205f2001905f90565b90600182811c92168015610f00575b6020831014610eec57565b634e487b7160e01b5f52602260045260245ffd5b91607f1691610ee1565b6080810190811067ffffffffffffffff82111761078f57604052565b90601f8019910116810190811067ffffffffffffffff82111761078f57604052565b9060405191825f8254610f5a81610ed2565b908184526020946001916001811690815f14610fc85750600114610f8a575b505050610f8892500383610f26565b565b5f90815285812095935091905b818310610fb0575050610f8893508201015f8080610f79565b85548884018501529485019487945091830191610f97565b92505050610f8894925060ff191682840152151560051b8201015f8080610f79565b5f5b838110610ffb5750505f910152565b8181015183820152602001610fec565b9060209161102481518092818552858086019101610fea565b601f01601f1916010190565b1561103757565b60405162461bcd60e51b815260206004820152600c60248201526b496e76616c69642072616e6b60a01b6044820152606490fd5b818110611076575050565b5f815560010161106b565b91908110156107b25760051b0190565b335f9081527f02234ac32498c5aa9eaed3740c9aa18de877cf481aad69808788248b6c8b00246020908152604091829020547f8681da52707a4f66720c32fa41aded415317b1303bde52a67c818b3eae9e74759060ff16156110f257505050565b6110fb336114ee565b90835161110781610f0a565b604281528381019160603684378151156107b257603083538151600190600110156107b257607860218401536041905b8082116112245750506111e25760486111de9386936111c2936111b3985198899376020b1b1b2b9b9a1b7b73a3937b61d1030b1b1b7bab73a1604d1b8a86015261118a815180928c603789019101610fea565b8401917001034b99036b4b9b9b4b733903937b6329607d1b603784015251809386840190610fea565b01036028810187520185610f26565b5192839262461bcd60e51b84526004840152602483019061100b565b0390fd5b60648486519062461bcd60e51b825280600483015260248201527f537472696e67733a20686578206c656e67746820696e73756666696369656e746044820152fd5b9091600f811660108110156107b2576f181899199a1a9b1b9c1cb0b131b232b360811b901a61125384866113f3565b5360041c9180156107c6575f190190611137565b805f5260205f8152604091825f20335f52825260ff835f2054161561128b57505050565b611294336114ee565b9083516112a081610f0a565b604281528381019160603684378151156107b257603083538151600190600110156107b257607860218401536041905b8082116113235750506111e25760486111de9386936111c2936111b3985198899376020b1b1b2b9b9a1b7b73a3937b61d1030b1b1b7bab73a1604d1b8a86015261118a815180928c603789019101610fea565b9091600f811660108110156107b2576f181899199a1a9b1b9c1cb0b131b232b360811b901a61135284866113f3565b5360041c9180156107c6575f1901906112d0565b90815f525f60205260405f209060018060a01b031690815f5260205260ff60405f205416611392575050565b815f525f60205260405f20815f5260205260405f2060ff19815416905533917ff6391f5c32d9c69d2a47ea670b442974b53935d1edc7fd64eb21e047a839171b5f80a4565b67ffffffffffffffff811161078f57601f01601f191660200190565b9081518110156107b2570160200190565b60ff90818116156114be575f9282825b169384156114335783168381146107c657600a60018592019504611414565b935091908180851694611445866113d7565b956114536040519788610f26565b808752611462601f19916113d7565b01366020880137915b169081156114b95782165f19018281116107c6578091600a908482820616603001928584116107c657859360f81b6001600160f81b0319165f1a906114b2908516896113f3565b530461146b565b505050565b50506040516040810181811067ffffffffffffffff82111761078f5760405260018152600360fc1b602082015290565b604051906060820182811067ffffffffffffffff82111761078f57604052602a82526020820160403682378251156107b257603090538151600190600110156107b257607860218401536029905b80821161159057505061154c5790565b606460405162461bcd60e51b815260206004820152602060248201527f537472696e67733a20686578206c656e67746820696e73756666696369656e746044820152fd5b9091600f811660108110156107b2576f181899199a1a9b1b9c1cb0b131b232b360811b901a6115bf84866113f3565b5360041c9180156107c6575f19019061153c56fea26469706673582212204d826eed8194358dfe50f6230f25f5df5ec969082543047f35a13c491c6677c264736f6c634300081800332f8788117e7eff1d82e926ec794901d17c78024a50270940304540a733656f0d","linkReferences":{}},"methodIdentifiers":{"DEFAULT_ADMIN_ROLE()":"a217fddf","PRESTIGE_MANAGER_ROLE()":"beb7f2b3","batchSetCosts(uint8[],uint256[])":"a0a6e0b6","burnUtility()":"9f5002bf","cosmeticUnlocked(address,uint8)":"d627a4a8","cosmeticsByRank(uint8,uint256)":"70f04344","getCosmeticsForRank(uint8)":"fba7a193","getPrestigeRank(address)":"a88debc9","getRankCost(uint8)":"3678a45a","getRoleAdmin(bytes32)":"248a9ca3","grantRole(bytes32,address)":"2f2ff15d","hasRole(bytes32,address)":"91d14854","isCosmeticUnlocked(address,uint8)":"b041eb44","prestigeRank(address)":"c597f0e3","rankCosts(uint256)":"8ac6a9fc","renounceRole(bytes32,address)":"36568abe","revokeRole(bytes32,address)":"d547741f","setCosmeticsForRank(uint8,string[])":"614b147e","setRankCost(uint8,uint256)":"20984379","supportsInterface(bytes4)":"01ffc9a7","unlockNextRank()":"97f56d6e"},"id":14}