{"abi":[{"type":"constructor","inputs":[{"name":"_voidToken","type":"address","internalType":"address"}],"stateMutability":"nonpayable"},{"type":"function","name":"BURN_MANAGER_ROLE","inputs":[],"outputs":[{"name":"","type":"bytes32","internalType":"bytes32"}],"stateMutability":"view"},{"type":"function","name":"DEFAULT_ADMIN_ROLE","inputs":[],"outputs":[{"name":"","type":"bytes32","internalType":"bytes32"}],"stateMutability":"view"},{"type":"function","name":"GOVERNOR_ROLE","inputs":[],"outputs":[{"name":"","type":"bytes32","internalType":"bytes32"}],"stateMutability":"view"},{"type":"function","name":"burnForUtility","inputs":[{"name":"amount","type":"uint256","internalType":"uint256"},{"name":"category","type":"uint8","internalType":"enum VoidBurnUtility.BurnCategory"},{"name":"metadata","type":"string","internalType":"string"}],"outputs":[],"stateMutability":"nonpayable"},{"type":"function","name":"categoryTotalBurned","inputs":[{"name":"","type":"string","internalType":"string"}],"outputs":[{"name":"","type":"uint256","internalType":"uint256"}],"stateMutability":"view"},{"type":"function","name":"currentDayBurned","inputs":[],"outputs":[{"name":"","type":"uint256","internalType":"uint256"}],"stateMutability":"view"},{"type":"function","name":"currentDayUserBurned","inputs":[{"name":"","type":"address","internalType":"address"}],"outputs":[{"name":"","type":"uint256","internalType":"uint256"}],"stateMutability":"view"},{"type":"function","name":"currentYearBurned","inputs":[],"outputs":[{"name":"","type":"uint256","internalType":"uint256"}],"stateMutability":"view"},{"type":"function","name":"getCategoryTotalBurned","inputs":[{"name":"category","type":"uint8","internalType":"enum VoidBurnUtility.BurnCategory"}],"outputs":[{"name":"","type":"uint256","internalType":"uint256"}],"stateMutability":"view"},{"type":"function","name":"getCurrentDayBurned","inputs":[],"outputs":[{"name":"","type":"uint256","internalType":"uint256"}],"stateMutability":"view"},{"type":"function","name":"getCurrentYearBurned","inputs":[],"outputs":[{"name":"","type":"uint256","internalType":"uint256"}],"stateMutability":"view"},{"type":"function","name":"getRoleAdmin","inputs":[{"name":"role","type":"bytes32","internalType":"bytes32"}],"outputs":[{"name":"","type":"bytes32","internalType":"bytes32"}],"stateMutability":"view"},{"type":"function","name":"getUserCurrentDayBurned","inputs":[{"name":"user","type":"address","internalType":"address"}],"outputs":[{"name":"","type":"uint256","internalType":"uint256"}],"stateMutability":"view"},{"type":"function","name":"getUserTotalBurned","inputs":[{"name":"user","type":"address","internalType":"address"}],"outputs":[{"name":"","type":"uint256","internalType":"uint256"}],"stateMutability":"view"},{"type":"function","name":"grantRole","inputs":[{"name":"role","type":"bytes32","internalType":"bytes32"},{"name":"account","type":"address","internalType":"address"}],"outputs":[],"stateMutability":"nonpayable"},{"type":"function","name":"hasRole","inputs":[{"name":"role","type":"bytes32","internalType":"bytes32"},{"name":"account","type":"address","internalType":"address"}],"outputs":[{"name":"","type":"bool","internalType":"bool"}],"stateMutability":"view"},{"type":"function","name":"lastDayTimestamp","inputs":[],"outputs":[{"name":"","type":"uint256","internalType":"uint256"}],"stateMutability":"view"},{"type":"function","name":"lastUserDayTimestamp","inputs":[{"name":"","type":"address","internalType":"address"}],"outputs":[{"name":"","type":"uint256","internalType":"uint256"}],"stateMutability":"view"},{"type":"function","name":"limits","inputs":[],"outputs":[{"name":"dailyGlobalCap","type":"uint256","internalType":"uint256"},{"name":"dailyUserCap","type":"uint256","internalType":"uint256"},{"name":"yearlyGlobalCap","type":"uint256","internalType":"uint256"},{"name":"minBurnAmount","type":"uint256","internalType":"uint256"},{"name":"maxBurnAmount","type":"uint256","internalType":"uint256"}],"stateMutability":"view"},{"type":"function","name":"pauseBurns","inputs":[],"outputs":[],"stateMutability":"nonpayable"},{"type":"function","name":"paused","inputs":[],"outputs":[{"name":"","type":"bool","internalType":"bool"}],"stateMutability":"view"},{"type":"function","name":"renounceRole","inputs":[{"name":"role","type":"bytes32","internalType":"bytes32"},{"name":"account","type":"address","internalType":"address"}],"outputs":[],"stateMutability":"nonpayable"},{"type":"function","name":"revokeRole","inputs":[{"name":"role","type":"bytes32","internalType":"bytes32"},{"name":"account","type":"address","internalType":"address"}],"outputs":[],"stateMutability":"nonpayable"},{"type":"function","name":"supportsInterface","inputs":[{"name":"interfaceId","type":"bytes4","internalType":"bytes4"}],"outputs":[{"name":"","type":"bool","internalType":"bool"}],"stateMutability":"view"},{"type":"function","name":"totalBurned","inputs":[],"outputs":[{"name":"","type":"uint256","internalType":"uint256"}],"stateMutability":"view"},{"type":"function","name":"unpauseBurns","inputs":[],"outputs":[],"stateMutability":"nonpayable"},{"type":"function","name":"updateBurnLimits","inputs":[{"name":"_dailyGlobalCap","type":"uint256","internalType":"uint256"},{"name":"_dailyUserCap","type":"uint256","internalType":"uint256"},{"name":"_yearlyGlobalCap","type":"uint256","internalType":"uint256"},{"name":"_minBurnAmount","type":"uint256","internalType":"uint256"},{"name":"_maxBurnAmount","type":"uint256","internalType":"uint256"}],"outputs":[],"stateMutability":"nonpayable"},{"type":"function","name":"userTotalBurned","inputs":[{"name":"","type":"address","internalType":"address"}],"outputs":[{"name":"","type":"uint256","internalType":"uint256"}],"stateMutability":"view"},{"type":"function","name":"voidToken","inputs":[],"outputs":[{"name":"","type":"address","internalType":"contract ERC20Burnable"}],"stateMutability":"view"},{"type":"function","name":"yearStartTimestamp","inputs":[],"outputs":[{"name":"","type":"uint256","internalType":"uint256"}],"stateMutability":"view"},{"type":"event","name":"BurnLimitsUpdated","inputs":[{"name":"dailyGlobalCap","type":"uint256","indexed":false,"internalType":"uint256"},{"name":"dailyUserCap","type":"uint256","indexed":false,"internalType":"uint256"},{"name":"yearlyGlobalCap","type":"uint256","indexed":false,"internalType":"uint256"},{"name":"minBurnAmount","type":"uint256","indexed":false,"internalType":"uint256"},{"name":"maxBurnAmount","type":"uint256","indexed":false,"internalType":"uint256"}],"anonymous":false},{"type":"event","name":"BurnResumed","inputs":[{"name":"admin","type":"address","indexed":true,"internalType":"address"},{"name":"timestamp","type":"uint256","indexed":false,"internalType":"uint256"}],"anonymous":false},{"type":"event","name":"EmergencyBurnPaused","inputs":[{"name":"admin","type":"address","indexed":true,"internalType":"address"},{"name":"timestamp","type":"uint256","indexed":false,"internalType":"uint256"}],"anonymous":false},{"type":"event","name":"Paused","inputs":[{"name":"account","type":"address","indexed":false,"internalType":"address"}],"anonymous":false},{"type":"event","name":"RoleAdminChanged","inputs":[{"name":"role","type":"bytes32","indexed":true,"internalType":"bytes32"},{"name":"previousAdminRole","type":"bytes32","indexed":true,"internalType":"bytes32"},{"name":"newAdminRole","type":"bytes32","indexed":true,"internalType":"bytes32"}],"anonymous":false},{"type":"event","name":"RoleGranted","inputs":[{"name":"role","type":"bytes32","indexed":true,"internalType":"bytes32"},{"name":"account","type":"address","indexed":true,"internalType":"address"},{"name":"sender","type":"address","indexed":true,"internalType":"address"}],"anonymous":false},{"type":"event","name":"RoleRevoked","inputs":[{"name":"role","type":"bytes32","indexed":true,"internalType":"bytes32"},{"name":"account","type":"address","indexed":true,"internalType":"address"},{"name":"sender","type":"address","indexed":true,"internalType":"address"}],"anonymous":false},{"type":"event","name":"Unpaused","inputs":[{"name":"account","type":"address","indexed":false,"internalType":"address"}],"anonymous":false},{"type":"event","name":"VoidBurned","inputs":[{"name":"user","type":"address","indexed":true,"internalType":"address"},{"name":"amount","type":"uint256","indexed":false,"internalType":"uint256"},{"name":"category","type":"uint8","indexed":false,"internalType":"enum VoidBurnUtility.BurnCategory"},{"name":"metadata","type":"string","indexed":false,"internalType":"string"},{"name":"timestamp","type":"uint256","indexed":false,"internalType":"uint256"}],"anonymous":false}],"bytecode":{"object":"0x60a034620002b157601f62001aef38819003918201601f19168301926001600160401b039290919083851183861017620001b55780839260409687528339602092839181010312620002b157516001600160a01b03811690819003620002b1576001805560ff1990816002541660025580156200026d576080525f80525f8252835f20335f52825260ff845f2054161562000238575b7f603ae08765bc5fad7a971952007e4e84ddd8001052efaad946bd8a191e1870df805f525f8352845f20335f52835260ff855f2054161562000201575b507f7935bd0ae54bc31f548c14dba4d37c5c64b3f8ca900cb468fb8abd54d5894f5590815f525f8352845f20335f52835260ff855f20541615620001c9575b505082519060a082019282841090841117620001b55760809284526a084595161401484a0000009081835269152d02c7e14af680000080918401526b033b2e3c9fd0803ce800000091828685015268056bc75e2d631000009384606082015269d3c21bcecceda10000009586910152600655600755600855600955600a5542600b5542600e55516118199081620002b68239608051818181610207015261088b0152f35b634e487b7160e01b5f52604160045260245ffd5b815f525f8352845f20335f5283526001855f2091825416179055339033905f8051602062001acf8339815191525f80a45f8062000111565b805f525f8352845f20335f528352845f20600183825416179055339033905f8051602062001acf8339815191525f80a45f620000d2565b5f80525f8252835f20335f528252835f2060018282541617905533335f5f8051602062001acf8339815191528180a462000095565b845162461bcd60e51b815260048101849052601460248201527f496e76616c696420564f494420616464726573730000000000000000000000006044820152606490fd5b5f80fdfe6080604081815260049182361015610015575f80fd5b5f925f3560e01c91826301ffc9a7146110695750816308ca27bf1461104b5781631e0d4ce914610c5f578163248a9ca314611022578163297bf35b14610fe85781632f2ff15d14610f4557816336568abe14610eb45781635c8299a114610e7d5781635c975abb14610e5a5781636b7916d114610e3e57816372493cec14610e1957816376f2d7d214610d6c57816380eee92d14610d35578163860aefcf14610cf157816391d1485414610cae578163a217fddf14610c94578163b3ed321f14610c5f578163ccc5749014610c25578163d547741f14610bea578163d7a3c0b114610bcc578163d89135cd14610bae578163d93550a11461076a578163e439a86a14610399578163e638a3a614610314578163e6c8946e146102f5578163ece4907814610236578163f80b3dd0146101f2578163fcf5599c146101d3578163fd19c4ac14610192575063fd6b65e61461016c575f80fd5b3461018e578160031936011261018e5760209061018761121d565b9051908152f35b5080fd5b9050346101cf5760203660031901126101cf57359160058310156101cc57506101c46101bf6020936115ba565b611176565b549051908152f35b80fd5b8280fd5b50503461018e578160031936011261018e57602090600e549051908152f35b50503461018e578160031936011261018e57517f00000000000000000000000000000000000000000000000000000000000000006001600160a01b03168152602090f35b9050346101cf57826003193601126101cf5761025061123b565b6002549060ff8216156102bb575060ff19166002557f5db9ee0a495bf2e6ff9c91a7834c1ba4fdd244a5e8aa4e537bd38aeae4b073aa60208251338152a1514281527f9775ee38b4f1d530185661f1f2c064e1f79a05a1c36889535920ba153bfe77d060203392a280f35b606490602084519162461bcd60e51b8352820152601460248201527314185d5cd8589b194e881b9bdd081c185d5cd95960621b6044820152fd5b50503461018e578160031936011261018e57602090600d549051908152f35b50503461018e578160031936011261018e5761032e61123b565b610336611576565b600160ff1960025416176002557f62e78cea01bee320cd4e420270b5ea74000d11b0c9f74754ebdbfc544b05a25860208251338152a1514281527fcc711900f4bdc5f0e3749436fdc687d85f41b91027b50d2e4144c1a944c7b75660203392a280f35b83833461018e5760a036600319011261018e57823560249182359260449182359160643593608435987f7935bd0ae54bc31f548c14dba4d37c5c64b3f8ca900cb468fb8abd54d5894f5591825f526020925f8452855f20335f52845260ff865f2054161561059957508a8711610568578789116105315761016d80890290898204148915171561051f5786106104e0575083519260a084019184831067ffffffffffffffff8411176104cf5750509860808195938986947f03416e2e94dfc7a5515f98e9f40668adaf5b96effad63e4e21f791beb3e4008b9c9d6104c99a98528a8352820152848482015285606082015201528560065586600755816008558260095583600a5551958695869192608093969594919660a084019784526020840152604083015260608201520152565b0390a180f35b604190634e487b7160e01b5f52525ffd5b60176064947f496e636f6e73697374656e7420796561726c7920636170000000000000000000939487519562461bcd60e51b8752860152840152820152fd5b634e487b7160e01b8b5260118352848bfd5b60156064947405573657220636170203e20676c6f62616c2063617605c1b939487519562461bcd60e51b8752860152840152820152fd5b600f6064946e092dcecc2d8d2c840dad2dc5edac2f608b1b939487519562461bcd60e51b8752860152840152820152fd5b91848685946105a7336116fe565b8251906105b382611117565b60428252878201926060368537825115610758576030845382516001906001101561074657607860218501536041905b8082116106e05750506106a1579261067260488976020b1b1b2b9b9a1b7b73a3937b61d1030b1b1b7bab73a1604d1b979561063a9561066361069399875198858a9687019d8e528251928391603789019101611155565b8401917001034b99036b4b9b9b4b733903937b6329607d1b603784015251809386840190611155565b01036028810185520183611133565b5196879562461bcd60e51b8752860152519283809286015285850190611155565b601f01601f19168101030190fd5b6064867f537472696e67733a20686578206c656e67746820696e73756666696369656e74898b89818a519562461bcd60e51b8752860152840152820152fd5b9091600f81166010811015610734576f181899199a1a9b1b9c1cb0b131b232b360811b901a61070f84876116ed565b53881c918015610722575f1901906105e3565b8760118a634e487b7160e01b5f52525ffd5b8860328b634e487b7160e01b5f52525ffd5b86603289634e487b7160e01b5f52525ffd5b85603288634e487b7160e01b5f52525ffd5b9050346109f55760603660031901126109f55780359060249081359360058510156109f55760449485359267ffffffffffffffff908185116109f557366023860112156109f55784810135978289116109f55736878a880101116109f557600260015414610b6d5760026001556107df611576565b6009548810610b3757600a548811610aff57600b54926201518093848101809111610ac657421015610af2575b335f52602093600f8552865f2054908101809111610ac657421015610ad8575b600e546301e133808101809111610ac657421015610ab9575b61085189600c5461119c565b60065410610a7957335f526010845261086d89875f205461119c565b60075410610a395761088189600d5461119c565b600854106109f9577f00000000000000000000000000000000000000000000000000000000000000006001600160a01b031691823b156109f557895f918a838a51968794859363079cc67960e41b8552338b8601528401525af180156109eb576109c3575b50509287949260809288979561091f7fbe648517baa48a5a7698853ae6c785e007c11271f3be716b1d62368da62e51289a60035461119c565b600355338c528152828b2061093589825461119c565b90556109436101bf836115ba565b61094e89825461119c565b905561095c88600c5461119c565b600c55338b5260108152828b2061097489825461119c565b905561098288600d5461119c565b600d5582519788528701528501528260808501520160a08301378360a0848301015242606082015260a0813394601f80199101168101030190a26001805580f35b9080929a50116109d95783525f978260806108e6565b8560418a634e487b7160e01b5f52525ffd5b86513d5f823e3d90fd5b5f80fd5b507f596561726c7920676c6f62616c2063617020657863656564656400000000000090601a8860649588519562461bcd60e51b8752860152840152820152fd5b507f4461696c792075736572206361702065786365656465640000000000000000009060178860649588519562461bcd60e51b8752860152840152820152fd5b507f4461696c7920676c6f62616c20636170206578636565646564000000000000009060198860649588519562461bcd60e51b8752860152840152820152fd5b5f600d5542600e55610845565b88601185634e487b7160e01b5f52525ffd5b335f52601084525f86812055600f845242865f205561082c565b5f600c5542600b5561080c565b907322bc31b2b2b2399036b0bc34b6bab690313ab93760611b606492601489602089519562461bcd60e51b8752860152840152820152fd5b90712132b637bb9036b4b734b6bab690313ab93760711b606492601289602089519562461bcd60e51b8752860152840152820152fd5b907f5265656e7472616e637947756172643a207265656e7472616e742063616c6c00606492601f89602089519562461bcd60e51b8752860152840152820152fd5b82346109f5575f3660031901126109f5576020906003549051908152f35b82346109f5575f3660031901126109f557602090600c549051908152f35b82346109f557806003193601126109f557610c239135610c1e6001610c0d6110d1565b93835f525f6020525f200154611403565b611505565b005b82346109f5575f3660031901126109f557602090517f7935bd0ae54bc31f548c14dba4d37c5c64b3f8ca900cb468fb8abd54d5894f558152f35b82346109f55760203660031901126109f5576020916001600160a01b03610c846110bb565b165f528252805f20549051908152f35b82346109f5575f3660031901126109f557602090515f8152f35b82346109f557806003193601126109f557602091610cca6110d1565b90355f525f8352815f209060018060a01b03165f52825260ff815f20541690519015158152f35b82346109f5575f3660031901126109f557600654600754600854600954600a549451938452602084019290925260408301526060820152608081019190915260a090f35b82346109f55760203660031901126109f5576020906001600160a01b03610d5a6110bb565b165f5260108252805f20549051908152f35b82346109f557602091826003193601126109f557803567ffffffffffffffff918282116109f557366023830112156109f55781810135928311610e0657508251610dbf601f8401601f1916860182611133565b8281528481019036602485850101116109f5575f8685610df49660248397018637830101528451938492839251928391611155565b81016005815203019020549051908152f35b604190634e487b7160e01b5f525260245ffd5b82346109f55760203660031901126109f557602090610187610e396110bb565b6111de565b82346109f5575f3660031901126109f5576020906101876111bd565b82346109f5575f3660031901126109f55760209060ff6002541690519015158152f35b82346109f55760203660031901126109f5576020906001600160a01b03610ea26110bb565b165f52600f8252805f20549051908152f35b9050346109f557816003193601126109f557610ece6110d1565b90336001600160a01b03831603610eea57610c23925035611505565b608490602084519162461bcd60e51b8352820152602f60248201527f416363657373436f6e74726f6c3a2063616e206f6e6c792072656e6f756e636560448201526e103937b632b9903337b91039b2b63360891b6064820152fd5b9050346109f557816003193601126109f5573590610f616110d1565b90825f525f602052610f786001825f200154611403565b5f83815260208181528282206001600160a01b039094168083529390528190205460ff1615610fa357005b825f525f602052805f20825f526020525f20600160ff1982541617905533917f2f8788117e7eff1d82e926ec794901d17c78024a50270940304540a733656f0d5f80a4005b82346109f5575f3660031901126109f557602090517f603ae08765bc5fad7a971952007e4e84ddd8001052efaad946bd8a191e1870df8152f35b82346109f55760203660031901126109f557602091355f525f82526001815f2001549051908152f35b82346109f5575f3660031901126109f557602090600b549051908152f35b90346109f55760203660031901126109f557359063ffffffff60e01b82168092036109f557602091637965db0b60e01b81149081156110aa575b5015158152f35b6301ffc9a760e01b149050836110a3565b600435906001600160a01b03821682036109f557565b602435906001600160a01b03821682036109f557565b6040810190811067ffffffffffffffff82111761110357604052565b634e487b7160e01b5f52604160045260245ffd5b6080810190811067ffffffffffffffff82111761110357604052565b90601f8019910116810190811067ffffffffffffffff82111761110357604052565b5f5b8381106111665750505f910152565b8181015183820152602001611157565b602061118f918160405193828580945193849201611155565b8101600581520301902090565b919082018092116111a957565b634e487b7160e01b5f52601160045260245ffd5b600b546201518081018091116111a9574210156111da57600c5490565b5f90565b6001600160a01b03165f818152600f60205260409020546201518081019081106111a957421015611218575f52601060205260405f205490565b505f90565b600e546301e1338081018091116111a9574210156111da57600d5490565b335f9081527f11760d6447c5f1589aa07b9d39ef96a99f321818aff6116bb3cfd219b3a509f96020908152604091829020547f603ae08765bc5fad7a971952007e4e84ddd8001052efaad946bd8a191e1870df919060ff161561129d57505050565b6112a6336116fe565b83516112b181611117565b604281528281019360603686378151156113ef57603085538151600190600110156113ef57607860218401536041905b8082116113ac57505061136a578461134660486106939360449798519889916113378984019876020b1b1b2b9b9a1b7b73a3937b61d1030b1b1b7bab73a1604d1b8a5261063a815180928d603789019101611155565b01036028810189520187611133565b5194859362461bcd60e51b8552600485015251809281602486015285850190611155565b60648386519062461bcd60e51b825280600483015260248201527f537472696e67733a20686578206c656e67746820696e73756666696369656e746044820152fd5b9091600f811660108110156113ef576f181899199a1a9b1b9c1cb0b131b232b360811b901a6113db84866116ed565b5360041c9180156111a9575f1901906112e1565b634e487b7160e01b5f52603260045260245ffd5b805f526020905f8252604091825f20335f52815260ff835f2054161561142857505050565b611431336116fe565b835161143c81611117565b604281528281019360603686378151156113ef57603085538151600190600110156113ef57607860218401536041905b8082116114c257505061136a578461134660486106939360449798519889916113378984019876020b1b1b2b9b9a1b7b73a3937b61d1030b1b1b7bab73a1604d1b8a5261063a815180928d603789019101611155565b9091600f811660108110156113ef576f181899199a1a9b1b9c1cb0b131b232b360811b901a6114f184866116ed565b5360041c9180156111a9575f19019061146c565b90815f525f60205260405f209060018060a01b031690815f5260205260ff60405f205416611531575050565b815f525f60205260405f20815f5260205260405f2060ff19815416905533917ff6391f5c32d9c69d2a47ea670b442974b53935d1edc7fd64eb21e047a839171b5f80a4565b60ff6002541661158257565b60405162461bcd60e51b815260206004820152601060248201526f14185d5cd8589b194e881c185d5cd95960821b6044820152606490fd5b60058110156116d95780156116ad5760018114611684576002811461165a57600381146116355760041461160b576040516115f4816110e7565b60078152662aa725a727aba760c91b602082015290565b604051611617816110e7565b600e81526d4d494e494150505f41434345535360901b602082015290565b50604051611642816110e7565b6008815267505245535449474560c01b602082015290565b50604051611667816110e7565b600d81526c43524541544f525f544f4f4c5360981b602082015290565b50604051611691816110e7565b600c81526b4c414e445f5550475241444560a01b602082015290565b506040516116ba816110e7565b600f81526e44495354524943545f554e4c4f434b60881b602082015290565b634e487b7160e01b5f52602160045260245ffd5b9081518110156113ef570160200190565b604051906060820182811067ffffffffffffffff82111761110357604052602a82526020820160403682378251156113ef57603090538151600190600110156113ef57607860218401536029905b8082116117a057505061175c5790565b606460405162461bcd60e51b815260206004820152602060248201527f537472696e67733a20686578206c656e67746820696e73756666696369656e746044820152fd5b9091600f811660108110156113ef576f181899199a1a9b1b9c1cb0b131b232b360811b901a6117cf84866116ed565b5360041c9180156111a9575f19019061174c56fea2646970667358221220acadc012add41806ad4aa171854f23493e2ee1dcc98d9c19991809b94485911164736f6c634300081800332f8788117e7eff1d82e926ec794901d17c78024a50270940304540a733656f0d","linkReferences":{}},"methodIdentifiers":{"BURN_MANAGER_ROLE()":"297bf35b","DEFAULT_ADMIN_ROLE()":"a217fddf","GOVERNOR_ROLE()":"ccc57490","burnForUtility(uint256,uint8,string)":"d93550a1","categoryTotalBurned(string)":"76f2d7d2","currentDayBurned()":"d7a3c0b1","currentDayUserBurned(address)":"80eee92d","currentYearBurned()":"e6c8946e","getCategoryTotalBurned(uint8)":"fd19c4ac","getCurrentDayBurned()":"6b7916d1","getCurrentYearBurned()":"fd6b65e6","getRoleAdmin(bytes32)":"248a9ca3","getUserCurrentDayBurned(address)":"72493cec","getUserTotalBurned(address)":"b3ed321f","grantRole(bytes32,address)":"2f2ff15d","hasRole(bytes32,address)":"91d14854","lastDayTimestamp()":"08ca27bf","lastUserDayTimestamp(address)":"5c8299a1","limits()":"860aefcf","pauseBurns()":"e638a3a6","paused()":"5c975abb","renounceRole(bytes32,address)":"36568abe","revokeRole(bytes32,address)":"d547741f","supportsInterface(bytes4)":"01ffc9a7","totalBurned()":"d89135cd","unpauseBurns()":"ece49078","updateBurnLimits(uint256,uint256,uint256,uint256,uint256)":"e439a86a","userTotalBurned(address)":"1e0d4ce9","voidToken()":"f80b3dd0","yearStartTimestamp()":"fcf5599c"},"id":15}